{
  "address": "0xe07772F97C166C5a57c0C55634458dC9F6C2E94e",
  "abi": [
    {
      "inputs": [],
      "name": "AddressUtils__NotContract",
      "type": "error"
    },
    {
      "inputs": [],
      "name": "ERC165Base__InvalidInterfaceId",
      "type": "error"
    },
    {
      "inputs": [],
      "name": "ERC721Base__BalanceQueryZeroAddress",
      "type": "error"
    },
    {
      "inputs": [],
      "name": "ERC721Base__ERC721ReceiverNotImplemented",
      "type": "error"
    },
    {
      "inputs": [],
      "name": "ERC721Base__InvalidOwner",
      "type": "error"
    },
    {
      "inputs": [],
      "name": "ERC721Base__MintToZeroAddress",
      "type": "error"
    },
    {
      "inputs": [],
      "name": "ERC721Base__NonExistentToken",
      "type": "error"
    },
    {
      "inputs": [],
      "name": "ERC721Base__NotOwnerOrApproved",
      "type": "error"
    },
    {
      "inputs": [],
      "name": "ERC721Base__NotTokenOwner",
      "type": "error"
    },
    {
      "inputs": [],
      "name": "ERC721Base__SelfApproval",
      "type": "error"
    },
    {
      "inputs": [],
      "name": "ERC721Base__TokenAlreadyMinted",
      "type": "error"
    },
    {
      "inputs": [],
      "name": "ERC721Base__TransferToZeroAddress",
      "type": "error"
    },
    {
      "inputs": [],
      "name": "ERC721Metadata__NonExistentToken",
      "type": "error"
    },
    {
      "inputs": [],
      "name": "EnumerableMap__IndexOutOfBounds",
      "type": "error"
    },
    {
      "inputs": [],
      "name": "EnumerableMap__NonExistentKey",
      "type": "error"
    },
    {
      "inputs": [],
      "name": "EnumerableSet__IndexOutOfBounds",
      "type": "error"
    },
    {
      "inputs": [],
      "name": "PRBMathSD59x18__AbsInputTooSmall",
      "type": "error"
    },
    {
      "inputs": [],
      "name": "PRBMathSD59x18__MulInputTooSmall",
      "type": "error"
    },
    {
      "inputs": [
        {
          "internalType": "uint256",
          "name": "rAbs",
          "type": "uint256"
        }
      ],
      "name": "PRBMathSD59x18__MulOverflow",
      "type": "error"
    },
    {
      "inputs": [
        {
          "internalType": "uint256",
          "name": "rAbs",
          "type": "uint256"
        }
      ],
      "name": "PRBMathSD59x18__PowuOverflow",
      "type": "error"
    },
    {
      "inputs": [
        {
          "internalType": "uint256",
          "name": "prod1",
          "type": "uint256"
        }
      ],
      "name": "PRBMath__MulDivFixedPointOverflow",
      "type": "error"
    },
    {
      "inputs": [
        {
          "internalType": "uint256",
          "name": "prod1",
          "type": "uint256"
        },
        {
          "internalType": "uint256",
          "name": "denominator",
          "type": "uint256"
        }
      ],
      "name": "PRBMath__MulDivOverflow",
      "type": "error"
    },
    {
      "inputs": [],
      "name": "SolidStateERC721__PayableApproveNotSupported",
      "type": "error"
    },
    {
      "inputs": [],
      "name": "SolidStateERC721__PayableTransferNotSupported",
      "type": "error"
    },
    {
      "anonymous": false,
      "inputs": [
        {
          "indexed": true,
          "internalType": "address",
          "name": "owner",
          "type": "address"
        },
        {
          "indexed": true,
          "internalType": "address",
          "name": "operator",
          "type": "address"
        },
        {
          "indexed": true,
          "internalType": "uint256",
          "name": "tokenId",
          "type": "uint256"
        }
      ],
      "name": "Approval",
      "type": "event"
    },
    {
      "anonymous": false,
      "inputs": [
        {
          "indexed": true,
          "internalType": "address",
          "name": "owner",
          "type": "address"
        },
        {
          "indexed": true,
          "internalType": "address",
          "name": "operator",
          "type": "address"
        },
        {
          "indexed": false,
          "internalType": "bool",
          "name": "approved",
          "type": "bool"
        }
      ],
      "name": "ApprovalForAll",
      "type": "event"
    },
    {
      "anonymous": false,
      "inputs": [
        {
          "indexed": true,
          "internalType": "uint256",
          "name": "tokenId",
          "type": "uint256"
        },
        {
          "indexed": true,
          "internalType": "uint256",
          "name": "salePrice",
          "type": "uint256"
        }
      ],
      "name": "Bought",
      "type": "event"
    },
    {
      "anonymous": false,
      "inputs": [
        {
          "indexed": true,
          "internalType": "address",
          "name": "account",
          "type": "address"
        },
        {
          "indexed": true,
          "internalType": "uint256",
          "name": "amount",
          "type": "uint256"
        }
      ],
      "name": "FRClaimed",
      "type": "event"
    },
    {
      "anonymous": false,
      "inputs": [
        {
          "indexed": true,
          "internalType": "uint256",
          "name": "tokenId",
          "type": "uint256"
        },
        {
          "indexed": true,
          "internalType": "uint256",
          "name": "soldPrice",
          "type": "uint256"
        },
        {
          "indexed": true,
          "internalType": "uint256",
          "name": "allocatedFR",
          "type": "uint256"
        }
      ],
      "name": "FRDistributed",
      "type": "event"
    },
    {
      "anonymous": false,
      "inputs": [
        {
          "indexed": true,
          "internalType": "uint256",
          "name": "tokenId",
          "type": "uint256"
        },
        {
          "indexed": true,
          "internalType": "uint256",
          "name": "salePrice",
          "type": "uint256"
        }
      ],
      "name": "Listed",
      "type": "event"
    },
    {
      "anonymous": false,
      "inputs": [
        {
          "indexed": true,
          "internalType": "address",
          "name": "account",
          "type": "address"
        },
        {
          "indexed": true,
          "internalType": "uint256",
          "name": "amount",
          "type": "uint256"
        }
      ],
      "name": "ORClaimed",
      "type": "event"
    },
    {
      "anonymous": false,
      "inputs": [
        {
          "indexed": true,
          "internalType": "uint256",
          "name": "tokenId",
          "type": "uint256"
        },
        {
          "indexed": true,
          "internalType": "uint256",
          "name": "soldPrice",
          "type": "uint256"
        },
        {
          "indexed": true,
          "internalType": "uint256",
          "name": "allocatedFR",
          "type": "uint256"
        }
      ],
      "name": "ORDistributed",
      "type": "event"
    },
    {
      "anonymous": false,
      "inputs": [
        {
          "indexed": true,
          "internalType": "address",
          "name": "from",
          "type": "address"
        },
        {
          "indexed": true,
          "internalType": "address",
          "name": "to",
          "type": "address"
        },
        {
          "indexed": true,
          "internalType": "uint256",
          "name": "tokenId",
          "type": "uint256"
        }
      ],
      "name": "OTokenTransfer",
      "type": "event"
    },
    {
      "anonymous": false,
      "inputs": [
        {
          "indexed": true,
          "internalType": "uint256",
          "name": "tokenId",
          "type": "uint256"
        }
      ],
      "name": "OTokensDistributed",
      "type": "event"
    },
    {
      "anonymous": false,
      "inputs": [
        {
          "indexed": true,
          "internalType": "address",
          "name": "from",
          "type": "address"
        },
        {
          "indexed": true,
          "internalType": "address",
          "name": "to",
          "type": "address"
        },
        {
          "indexed": true,
          "internalType": "uint256",
          "name": "tokenId",
          "type": "uint256"
        }
      ],
      "name": "Transfer",
      "type": "event"
    },
    {
      "anonymous": false,
      "inputs": [
        {
          "indexed": true,
          "internalType": "uint256",
          "name": "tokenId",
          "type": "uint256"
        }
      ],
      "name": "Unlisted",
      "type": "event"
    },
    {
      "inputs": [
        {
          "internalType": "address",
          "name": "operator",
          "type": "address"
        },
        {
          "internalType": "uint256",
          "name": "tokenId",
          "type": "uint256"
        }
      ],
      "name": "approve",
      "outputs": [],
      "stateMutability": "payable",
      "type": "function"
    },
    {
      "inputs": [
        {
          "internalType": "address",
          "name": "account",
          "type": "address"
        }
      ],
      "name": "balanceOf",
      "outputs": [
        {
          "internalType": "uint256",
          "name": "",
          "type": "uint256"
        }
      ],
      "stateMutability": "view",
      "type": "function"
    },
    {
      "inputs": [
        {
          "internalType": "uint256",
          "name": "tokenId",
          "type": "uint256"
        },
        {
          "internalType": "address",
          "name": "account",
          "type": "address"
        }
      ],
      "name": "balanceOfOTokens",
      "outputs": [
        {
          "internalType": "uint256",
          "name": "",
          "type": "uint256"
        }
      ],
      "stateMutability": "view",
      "type": "function"
    },
    {
      "inputs": [
        {
          "internalType": "uint256",
          "name": "tokenId",
          "type": "uint256"
        }
      ],
      "name": "buy",
      "outputs": [],
      "stateMutability": "payable",
      "type": "function"
    },
    {
      "inputs": [
        {
          "internalType": "address",
          "name": "account",
          "type": "address"
        }
      ],
      "name": "getAllottedFR",
      "outputs": [
        {
          "internalType": "uint256",
          "name": "",
          "type": "uint256"
        }
      ],
      "stateMutability": "view",
      "type": "function"
    },
    {
      "inputs": [
        {
          "internalType": "address",
          "name": "account",
          "type": "address"
        }
      ],
      "name": "getAllottedOR",
      "outputs": [
        {
          "internalType": "uint256",
          "name": "",
          "type": "uint256"
        }
      ],
      "stateMutability": "view",
      "type": "function"
    },
    {
      "inputs": [
        {
          "internalType": "uint256",
          "name": "tokenId",
          "type": "uint256"
        }
      ],
      "name": "getApproved",
      "outputs": [
        {
          "internalType": "address",
          "name": "",
          "type": "address"
        }
      ],
      "stateMutability": "view",
      "type": "function"
    },
    {
      "inputs": [
        {
          "internalType": "uint256",
          "name": "tokenId",
          "type": "uint256"
        }
      ],
      "name": "getFRInfo",
      "outputs": [
        {
          "internalType": "uint8",
          "name": "numGenerations",
          "type": "uint8"
        },
        {
          "internalType": "uint256",
          "name": "percentOfProfit",
          "type": "uint256"
        },
        {
          "internalType": "uint256",
          "name": "successiveRatio",
          "type": "uint256"
        },
        {
          "internalType": "uint256",
          "name": "lastSoldPrice",
          "type": "uint256"
        },
        {
          "internalType": "uint256",
          "name": "ownerAmount",
          "type": "uint256"
        },
        {
          "internalType": "address[]",
          "name": "addressesInFR",
          "type": "address[]"
        }
      ],
      "stateMutability": "view",
      "type": "function"
    },
    {
      "inputs": [
        {
          "internalType": "uint256",
          "name": "tokenId",
          "type": "uint256"
        }
      ],
      "name": "getLicenseName",
      "outputs": [
        {
          "internalType": "string",
          "name": "",
          "type": "string"
        }
      ],
      "stateMutability": "view",
      "type": "function"
    },
    {
      "inputs": [
        {
          "internalType": "uint256",
          "name": "tokenId",
          "type": "uint256"
        }
      ],
      "name": "getLicenseURI",
      "outputs": [
        {
          "internalType": "string",
          "name": "",
          "type": "string"
        }
      ],
      "stateMutability": "view",
      "type": "function"
    },
    {
      "inputs": [
        {
          "internalType": "uint256",
          "name": "tokenId",
          "type": "uint256"
        }
      ],
      "name": "getListInfo",
      "outputs": [
        {
          "internalType": "uint256",
          "name": "",
          "type": "uint256"
        },
        {
          "internalType": "address",
          "name": "",
          "type": "address"
        },
        {
          "internalType": "bool",
          "name": "",
          "type": "bool"
        }
      ],
      "stateMutability": "view",
      "type": "function"
    },
    {
      "inputs": [],
      "name": "getManagerInfo",
      "outputs": [
        {
          "internalType": "address",
          "name": "untradingManager",
          "type": "address"
        },
        {
          "internalType": "uint256",
          "name": "managerCut",
          "type": "uint256"
        }
      ],
      "stateMutability": "view",
      "type": "function"
    },
    {
      "inputs": [
        {
          "internalType": "uint256",
          "name": "tokenId",
          "type": "uint256"
        }
      ],
      "name": "getORInfo",
      "outputs": [
        {
          "internalType": "uint256",
          "name": "ORatio",
          "type": "uint256"
        },
        {
          "internalType": "uint256",
          "name": "rewardRatio",
          "type": "uint256"
        },
        {
          "internalType": "address[]",
          "name": "holders",
          "type": "address[]"
        }
      ],
      "stateMutability": "view",
      "type": "function"
    },
    {
      "inputs": [
        {
          "internalType": "uint256",
          "name": "tokenId",
          "type": "uint256"
        }
      ],
      "name": "getWrappedInfo",
      "outputs": [
        {
          "internalType": "address",
          "name": "",
          "type": "address"
        },
        {
          "internalType": "uint256",
          "name": "",
          "type": "uint256"
        },
        {
          "internalType": "bool",
          "name": "",
          "type": "bool"
        }
      ],
      "stateMutability": "view",
      "type": "function"
    },
    {
      "inputs": [
        {
          "internalType": "address",
          "name": "account",
          "type": "address"
        },
        {
          "internalType": "address",
          "name": "operator",
          "type": "address"
        }
      ],
      "name": "isApprovedForAll",
      "outputs": [
        {
          "internalType": "bool",
          "name": "",
          "type": "bool"
        }
      ],
      "stateMutability": "view",
      "type": "function"
    },
    {
      "inputs": [
        {
          "internalType": "uint256",
          "name": "tokenId",
          "type": "uint256"
        },
        {
          "internalType": "uint256",
          "name": "salePrice",
          "type": "uint256"
        }
      ],
      "name": "list",
      "outputs": [],
      "stateMutability": "nonpayable",
      "type": "function"
    },
    {
      "inputs": [
        {
          "internalType": "address",
          "name": "recipient",
          "type": "address"
        },
        {
          "internalType": "uint8",
          "name": "numGenerations",
          "type": "uint8"
        },
        {
          "internalType": "uint256",
          "name": "rewardRatio",
          "type": "uint256"
        },
        {
          "internalType": "uint256",
          "name": "ORatio",
          "type": "uint256"
        },
        {
          "internalType": "uint8",
          "name": "license",
          "type": "uint8"
        },
        {
          "internalType": "string",
          "name": "tokenURI",
          "type": "string"
        }
      ],
      "name": "mint",
      "outputs": [
        {
          "internalType": "uint256",
          "name": "tokenId",
          "type": "uint256"
        }
      ],
      "stateMutability": "nonpayable",
      "type": "function"
    },
    {
      "inputs": [],
      "name": "name",
      "outputs": [
        {
          "internalType": "string",
          "name": "",
          "type": "string"
        }
      ],
      "stateMutability": "view",
      "type": "function"
    },
    {
      "inputs": [
        {
          "internalType": "address",
          "name": "",
          "type": "address"
        },
        {
          "internalType": "address",
          "name": "",
          "type": "address"
        },
        {
          "internalType": "uint256",
          "name": "",
          "type": "uint256"
        },
        {
          "internalType": "bytes",
          "name": "",
          "type": "bytes"
        }
      ],
      "name": "onERC721Received",
      "outputs": [
        {
          "internalType": "bytes4",
          "name": "",
          "type": "bytes4"
        }
      ],
      "stateMutability": "pure",
      "type": "function"
    },
    {
      "inputs": [
        {
          "internalType": "uint256",
          "name": "tokenId",
          "type": "uint256"
        }
      ],
      "name": "ownerOf",
      "outputs": [
        {
          "internalType": "address",
          "name": "",
          "type": "address"
        }
      ],
      "stateMutability": "view",
      "type": "function"
    },
    {
      "inputs": [
        {
          "internalType": "address payable",
          "name": "account",
          "type": "address"
        }
      ],
      "name": "releaseFR",
      "outputs": [],
      "stateMutability": "nonpayable",
      "type": "function"
    },
    {
      "inputs": [
        {
          "internalType": "address payable",
          "name": "account",
          "type": "address"
        }
      ],
      "name": "releaseOR",
      "outputs": [],
      "stateMutability": "nonpayable",
      "type": "function"
    },
    {
      "inputs": [
        {
          "internalType": "address",
          "name": "from",
          "type": "address"
        },
        {
          "internalType": "address",
          "name": "to",
          "type": "address"
        },
        {
          "internalType": "uint256",
          "name": "tokenId",
          "type": "uint256"
        }
      ],
      "name": "safeTransferFrom",
      "outputs": [],
      "stateMutability": "payable",
      "type": "function"
    },
    {
      "inputs": [
        {
          "internalType": "address",
          "name": "from",
          "type": "address"
        },
        {
          "internalType": "address",
          "name": "to",
          "type": "address"
        },
        {
          "internalType": "uint256",
          "name": "tokenId",
          "type": "uint256"
        },
        {
          "internalType": "bytes",
          "name": "data",
          "type": "bytes"
        }
      ],
      "name": "safeTransferFrom",
      "outputs": [],
      "stateMutability": "payable",
      "type": "function"
    },
    {
      "inputs": [
        {
          "internalType": "address",
          "name": "operator",
          "type": "address"
        },
        {
          "internalType": "bool",
          "name": "status",
          "type": "bool"
        }
      ],
      "name": "setApprovalForAll",
      "outputs": [],
      "stateMutability": "nonpayable",
      "type": "function"
    },
    {
      "inputs": [
        {
          "internalType": "uint256",
          "name": "newManagerCut",
          "type": "uint256"
        }
      ],
      "name": "setManagerCut",
      "outputs": [],
      "stateMutability": "nonpayable",
      "type": "function"
    },
    {
      "inputs": [
        {
          "internalType": "bytes4",
          "name": "interfaceId",
          "type": "bytes4"
        }
      ],
      "name": "supportsInterface",
      "outputs": [
        {
          "internalType": "bool",
          "name": "",
          "type": "bool"
        }
      ],
      "stateMutability": "view",
      "type": "function"
    },
    {
      "inputs": [],
      "name": "symbol",
      "outputs": [
        {
          "internalType": "string",
          "name": "",
          "type": "string"
        }
      ],
      "stateMutability": "view",
      "type": "function"
    },
    {
      "inputs": [
        {
          "internalType": "uint256",
          "name": "index",
          "type": "uint256"
        }
      ],
      "name": "tokenByIndex",
      "outputs": [
        {
          "internalType": "uint256",
          "name": "",
          "type": "uint256"
        }
      ],
      "stateMutability": "view",
      "type": "function"
    },
    {
      "inputs": [
        {
          "internalType": "address",
          "name": "owner",
          "type": "address"
        },
        {
          "internalType": "uint256",
          "name": "index",
          "type": "uint256"
        }
      ],
      "name": "tokenOfOwnerByIndex",
      "outputs": [
        {
          "internalType": "uint256",
          "name": "",
          "type": "uint256"
        }
      ],
      "stateMutability": "view",
      "type": "function"
    },
    {
      "inputs": [
        {
          "internalType": "uint256",
          "name": "tokenId",
          "type": "uint256"
        }
      ],
      "name": "tokenURI",
      "outputs": [
        {
          "internalType": "string",
          "name": "",
          "type": "string"
        }
      ],
      "stateMutability": "view",
      "type": "function"
    },
    {
      "inputs": [],
      "name": "totalSupply",
      "outputs": [
        {
          "internalType": "uint256",
          "name": "",
          "type": "uint256"
        }
      ],
      "stateMutability": "view",
      "type": "function"
    },
    {
      "inputs": [
        {
          "internalType": "address",
          "name": "from",
          "type": "address"
        },
        {
          "internalType": "address",
          "name": "to",
          "type": "address"
        },
        {
          "internalType": "uint256",
          "name": "tokenId",
          "type": "uint256"
        }
      ],
      "name": "transferFrom",
      "outputs": [],
      "stateMutability": "payable",
      "type": "function"
    },
    {
      "inputs": [
        {
          "internalType": "uint256",
          "name": "tokenId",
          "type": "uint256"
        },
        {
          "internalType": "address",
          "name": "recipient",
          "type": "address"
        },
        {
          "internalType": "uint256",
          "name": "amount",
          "type": "uint256"
        }
      ],
      "name": "transferOTokens",
      "outputs": [],
      "stateMutability": "nonpayable",
      "type": "function"
    },
    {
      "inputs": [
        {
          "internalType": "uint256",
          "name": "tokenId",
          "type": "uint256"
        }
      ],
      "name": "unlist",
      "outputs": [],
      "stateMutability": "nonpayable",
      "type": "function"
    },
    {
      "inputs": [
        {
          "internalType": "uint256",
          "name": "tokenId",
          "type": "uint256"
        }
      ],
      "name": "unwrap",
      "outputs": [],
      "stateMutability": "nonpayable",
      "type": "function"
    },
    {
      "inputs": [
        {
          "internalType": "address",
          "name": "token",
          "type": "address"
        },
        {
          "internalType": "uint256",
          "name": "tokenId",
          "type": "uint256"
        },
        {
          "internalType": "uint8",
          "name": "numGenerations",
          "type": "uint8"
        },
        {
          "internalType": "uint256",
          "name": "rewardRatio",
          "type": "uint256"
        },
        {
          "internalType": "uint256",
          "name": "ORatio",
          "type": "uint256"
        },
        {
          "internalType": "uint8",
          "name": "license",
          "type": "uint8"
        },
        {
          "internalType": "string",
          "name": "tokenURI",
          "type": "string"
        }
      ],
      "name": "wrap",
      "outputs": [],
      "stateMutability": "nonpayable",
      "type": "function"
    }
  ],
  "transactionHash": "0x99278302a3946421b24e41f44da786a8761fd92ce8f8ede7f1091c6180886cc3",
  "args": [],
  "numDeployments": 1,
  "solcInputHash": "a44d8b64925f4bc2b5e597a58dadba61",
  "bytecode": "0x608060405234801561001057600080fd5b506155d2806100206000396000f3fe60806040526004361061026a5760003560e01c80636440263411610153578063c87b56dd116100cb578063e985e9c51161007f578063e9d8051811610064578063e9d80518146107a8578063eef202d01461080e578063efc7377a1461089e57600080fd5b8063e985e9c514610768578063e9c927ce1461078857600080fd5b8063d96a094a116100b0578063d96a094a14610703578063de0e9a3e14610716578063e428ce431461073657600080fd5b8063c87b56dd14610662578063cd19f95f1461068257600080fd5b8063a22cb46511610122578063b88d4fde11610107578063b88d4fde1461060f578063bb0b798914610622578063bf5a4dd31461064257600080fd5b8063a22cb4651461059a578063b5985905146105ba57600080fd5b806364402634146105165780636be3da261461053657806370a082311461056557806395d89b411461058557600080fd5b806332dea195116101e657806342842e0e116101b557806350fd73671161019a57806350fd7367146104b65780635da6916a146104d65780636352211e146104f657600080fd5b806342842e0e146104835780634f6ccce71461049657600080fd5b806332dea195146103ce57806338e0e89b146103ee5780633b21b215146104435780633b2af2721461046357600080fd5b8063150b7a021161023d57806323b872dd1161022257806323b872dd1461037b5780632f745c591461038e57806330bafc65146103ae57600080fd5b8063150b7a021461031357806318160ddd1461035857600080fd5b806301ffc9a71461026f57806306fdde03146102a4578063081812fc146102c6578063095ea7b3146102fe575b600080fd5b34801561027b57600080fd5b5061028f61028a366004614c7d565b61092d565b60405190151581526020015b60405180910390f35b3480156102b057600080fd5b506102b9610970565b60405161029b9190614cf2565b3480156102d257600080fd5b506102e66102e1366004614d05565b61097f565b6040516001600160a01b03909116815260200161029b565b61031161030c366004614d33565b61098a565b005b34801561031f57600080fd5b5061033f61032e366004614d5f565b630a85bd0160e11b95945050505050565b6040516001600160e01b0319909116815260200161029b565b34801561036457600080fd5b5061036d610998565b60405190815260200161029b565b610311610389366004614dfe565b6109a2565b34801561039a57600080fd5b5061036d6103a9366004614d33565b6109b2565b3480156103ba57600080fd5b506102b96103c9366004614d05565b6109c5565b3480156103da57600080fd5b506103116103e9366004614e3f565b6109d0565b3480156103fa57600080fd5b5061036d610409366004614e3f565b6001600160a01b031660009081527fb57ad6294d0e41674b9139793b648baaa742e3cad058c7605a8d73c5bbd2e602602052604090205490565b34801561044f57600080fd5b506102b961045e366004614d05565b610b5b565b34801561046f57600080fd5b5061031161047e366004614e5c565b610b66565b610311610491366004614dfe565b610eb4565b3480156104a257600080fd5b5061036d6104b1366004614d05565b610ebf565b3480156104c257600080fd5b506103116104d1366004614e83565b610eca565b3480156104e257600080fd5b506103116104f1366004614d05565b611004565b34801561050257600080fd5b506102e6610511366004614d05565b611084565b34801561052257600080fd5b50610311610531366004614e3f565b61108f565b34801561054257600080fd5b50610556610551366004614d05565b611227565b60405161029b93929190614ee9565b34801561057157600080fd5b5061036d610580366004614e3f565b6112cf565b34801561059157600080fd5b506102b96112da565b3480156105a657600080fd5b506103116105b5366004614f11565b6112e4565b3480156105c657600080fd5b5061036d6105d5366004614e3f565b6001600160a01b031660009081527f9e2510b4d59b813edef0dae2e1b6c87ee280a0f5524ef39bc6fe83ba371c55cc602052604090205490565b61031161061d366004614fdb565b6112ee565b34801561062e57600080fd5b5061031161063d36600461508c565b611300565b34801561064e57600080fd5b5061031161065d366004614d05565b611483565b34801561066e57600080fd5b506102b961067d366004614d05565b61157c565b34801561068e57600080fd5b506106e47f1c5e8fa68a2e18767b1f14b74959cf2ccd4e7455f76450fee582330c15ede59d547f1c5e8fa68a2e18767b1f14b74959cf2ccd4e7455f76450fee582330c15ede59e546001600160a01b0390911691565b604080516001600160a01b03909316835260208301919091520161029b565b610311610711366004614d05565b611587565b34801561072257600080fd5b50610311610731366004614d05565b61179e565b34801561074257600080fd5b50610756610751366004614d05565b61198b565b60405161029b9695949392919061511a565b34801561077457600080fd5b5061028f61078336600461514e565b611a4c565b34801561079457600080fd5b5061036d6107a336600461517c565b611a9b565b3480156107b457600080fd5b5061036d6107c33660046151ff565b60009182527fb57ad6294d0e41674b9139793b648baaa742e3cad058c7605a8d73c5bbd2e601602090815260408084206001600160a01b039390931684526003909201905290205490565b34801561081a57600080fd5b50610877610829366004614d05565b60009081527f331c87aea42537f4547366b85461b088f2a2915707f2d772a8abe244c71cb96360205260409020805460018201546002909201546001600160a01b039091169260ff90911690565b604080516001600160a01b039094168452602084019290925215159082015260600161029b565b3480156108aa57600080fd5b506109086108b9366004614d05565b60009081527f9e2510b4d59b813edef0dae2e1b6c87ee280a0f5524ef39bc6fe83ba371c55cb60205260409020805460019091015490916001600160a01b03821691600160a01b900460ff1690565b604080519384526001600160a01b03909216602084015215159082015260600161029b565b6001600160e01b0319811660009081527ffc606c433378e3a7e0a6a531deac289b66caa1b4aa8554fd4ab2c6f1570f92d8602052604081205460ff165b92915050565b606061097a611d3a565b905090565b600061096a82611deb565b6109948282611e4e565b5050565b600061097a611f8e565b6109ad838383611fb9565b505050565b60006109be8383611ff7565b9392505050565b606061096a82612038565b6001600160a01b03811660009081527f9e2510b4d59b813edef0dae2e1b6c87ee280a0f5524ef39bc6fe83ba371c55cc602052604090205460008051602061557d83398151915290610a695760405162461bcd60e51b815260206004820152601160248201527f4e6f204652205061796d656e742064756500000000000000000000000000000060448201526064015b60405180910390fd5b6001600160a01b0382166000818152600983016020526040808220805490839055905190929083908381818185875af1925050503d8060008114610ac9576040519150601f19603f3d011682016040523d82523d6000602084013e610ace565b606091505b5050905080610b1f5760405162461bcd60e51b815260206004820152601460248201527f4661696c656420746f2072656c656173652046520000000000000000000000006044820152606401610a60565b60405182906001600160a01b038616907f5a9202ceea6770814401fd72940be33fb25a4b30d55ca69183766ad7feb3e5ef90600090a350505050565b606061096a82612079565b7fb57ad6294d0e41674b9139793b648baaa742e3cad058c7605a8d73c5bbd2e6016001600160a01b038316610bdd5760405162461bcd60e51b815260206004820152601c60248201527f7472616e7366657220746f20746865207a65726f2061646472657373000000006044820152606401610a60565b6001600160a01b038316331415610c295760405162461bcd60e51b815260206004820152601060248201526f3a3930b739b332b9103a379039b2b63360811b6044820152606401610a60565b60008211610c795760405162461bcd60e51b815260206004820152601460248201527f7472616e7366657220616d6f756e7420697320300000000000000000000000006044820152606401610a60565b60008481526020828152604080832033845260030190915290205482811015610ce45760405162461bcd60e51b815260206004820152601f60248201527f7472616e7366657220616d6f756e7420657863656564732062616c616e6365006044820152606401610a60565b60008581526020838152604080832033845260030190915280822085840390556001600160a01b03861682529020805484019055610d22838261523a565b610e3a5760005b600086815260208490526040902060020154811015610df1576000868152602084905260409020600201805433919083908110610d6857610d68615251565b6000918252602090912001546001600160a01b03161415610ddf576000868152602084905260409020600201805486919083908110610da957610da9615251565b9060005260206000200160006101000a8154816001600160a01b0302191690836001600160a01b03160217905550505050505050565b80610de981615267565b915050610d29565b5060405162461bcd60e51b815260206004820152600960248201527f4e6f7420466f756e6400000000000000000000000000000000000000000000006044820152606401610a60565b6000858152602083815260408220600201805460018101825590835291200180546001600160a01b0319166001600160a01b0386169081179091558590336001600160a01b03167fcabb64bf74c3918e2dead3a14bbffbb72db126018e7ec25b6477447c50022fac60405160405180910390a45050505050565b6109ad8383836120fc565b600061096a82612117565b610ed4338361214a565b610f465760405162461bcd60e51b815260206004820152602e60248201527f455243353137333a206c6973742063616c6c6572206973206e6f74206f776e6560448201527f72206e6f7220617070726f7665640000000000000000000000000000000000006064820152608401610a60565b60408051606081018252828152336020808301918252600183850181815260008881527f9e2510b4d59b813edef0dae2e1b6c87ee280a0f5524ef39bc6fe83ba371c55cb9093528583209451855592519301805492511515600160a01b026001600160a81b03199093166001600160a01b039094169390931791909117909155905160008051602061557d83398151915291839185917f1ea45e30b31292f9d7c5d37d275b2feca555f13f47dce0fdea2f47e8852ecd7891a3505050565b7f1c5e8fa68a2e18767b1f14b74959cf2ccd4e7455f76450fee582330c15ede59d80546001600160a01b0316331461107e5760405162461bcd60e51b815260206004820152601460248201527f43616c6c6572206e6f74207065726d69747465640000000000000000000000006044820152606401610a60565b60010155565b600061096a8261220f565b6001600160a01b03811660009081527fb57ad6294d0e41674b9139793b648baaa742e3cad058c7605a8d73c5bbd2e60260205260409020547fb57ad6294d0e41674b9139793b648baaa742e3cad058c7605a8d73c5bbd2e601906111355760405162461bcd60e51b815260206004820152601160248201527f4e6f204f52205061796d656e74206475650000000000000000000000000000006044820152606401610a60565b6001600160a01b0382166000818152600183016020526040808220805490839055905190929083908381818185875af1925050503d8060008114611195576040519150601f19603f3d011682016040523d82523d6000602084013e61119a565b606091505b50509050806111eb5760405162461bcd60e51b815260206004820152601460248201527f4661696c656420746f2072656c65617365204f520000000000000000000000006044820152606401610a60565b60405182906001600160a01b038616907f3feca93bd3b961b230c096b1ef22dba609260c0c044ff23600c1c76075b50a4690600090a350505050565b60008181527fb57ad6294d0e41674b9139793b648baaa742e3cad058c7605a8d73c5bbd2e601602081815260408084208054600182015460029092018054845181870281018701909552808552879660609690959394939183918301828280156112ba57602002820191906000526020600020905b81546001600160a01b0316815260019091019060200180831161129c575b50505050509050935093509350509193909250565b600061096a8261227e565b606061097a612300565b6109948282612331565b6112fa848484846123e6565b50505050565b6001600160a01b03871630141561137f5760405162461bcd60e51b815260206004820152602660248201527f43616e6e6f742077726170206120746f6b656e2066726f6d207468697320636f60448201527f6e747261637400000000000000000000000000000000000000000000000000006064820152608401610a60565b600061138f338787878787611a9b565b604080516060810182526001600160a01b038b811680835260208084018d8152600185870181815260008981527f331c87aea42537f4547366b85461b088f2a2915707f2d772a8abe244c71cb96394859052888120975188546001600160a01b0319169716969096178755915190860155516002909401805460ff1916941515949094179093558351632142170760e11b8152336004820152306024820152604481018d90529351949550919391926342842e0e926064808301939282900301818387803b15801561146057600080fd5b505af1158015611474573d6000803e3d6000fd5b50505050505050505050505050565b61148d338261214a565b6114ff5760405162461bcd60e51b815260206004820152603060248201527f455243353137333a20756e6c6973742063616c6c6572206973206e6f74206f7760448201527f6e6572206e6f7220617070726f766564000000000000000000000000000000006064820152608401610a60565b60008181527f9e2510b4d59b813edef0dae2e1b6c87ee280a0f5524ef39bc6fe83ba371c55cb602052604080822082815560010180546001600160a81b03191690555160008051602061557d8339815191529183917f6318005f6dc5a71d3e4ad5b4d1fe455ef3402d62b64573777af55bb6bfe3daab9190a25050565b606061096a82612425565b60008181527f9e2510b4d59b813edef0dae2e1b6c87ee280a0f5524ef39bc6fe83ba371c55cb6020526040902060019081015460008051602061557d83398151915291600160a01b90910460ff161515146116245760405162461bcd60e51b815260206004820152601360248201527f546f6b656e206973206e6f74206c6973746564000000000000000000000000006044820152606401610a60565b600082815260088201602052604090205434146116835760405162461bcd60e51b815260206004820181905260248201527f73616c65507269636520616e64206d73672e76616c7565206d69736d617463686044820152606401610a60565b60005b600083815260078301602052604090206005015481101561173e57600083815260078301602052604090206005018054339190839081106116c9576116c9615251565b6000918252602090912001546001600160a01b0316141561172c5760405162461bcd60e51b815260206004820181905260248201527f416c726561647920696e2074686520465220736c6964696e672077696e646f776044820152606401610a60565b8061173681615267565b915050611686565b5060008281526008820160205260409020805460019091015461176c906001600160a01b0316338584612633565b604051819084907f3ccb2ab6980b218b1dd4974b07365cd90a191e170c611da46262fecc208bd66190600090a3505050565b60008051602061557d8339815191527f331c87aea42537f4547366b85461b088f2a2915707f2d772a8abe244c71cb9636117d8338461214a565b6118245760405162461bcd60e51b815260206004820152601c60248201527f43616c6c6572206973206e6f74206f776e6572206f6620746f6b656e000000006044820152606401610a60565b60008381526020829052604090206002015460ff16151560011461188a5760405162461bcd60e51b815260206004820152601460248201527f546f6b656e206973206e6f7420777261707065640000000000000000000000006044820152606401610a60565b60008381526007830160205260409020600401546001146118ed5760405162461bcd60e51b815260206004820152601660248201527f556e77726170206973206e6f7420656c696769626c65000000000000000000006044820152606401610a60565b600083815260208290526040902080546001909101546001600160a01b0390911690611918856128e2565b60408051632142170760e11b81523060048201523360248201526044810183905290516001600160a01b038416916342842e0e91606480830192600092919082900301818387803b15801561196c57600080fd5b505af1158015611980573d6000803e3d6000fd5b505050505050505050565b60008080808060608160008051602061557d8339815191526000898152600782016020908152604091829020805460018201546002830154600384015460048501546005909501805488518189028101890190995280895298995060ff9094169792969195909493928391830182828015611a2f57602002820191906000526020600020905b81546001600160a01b03168152600190910190602001808311611a11575b505050505090509650965096509650965096505091939550919395565b6001600160a01b0380831660009081527f3c7bf052874fa81625121783266a03507bd2cd48b16e571c01a04e8dd3fb07aa6020908152604080832093851683529290529081205460ff166109be565b600060058660ff1610158015611ab5575060148660ff1611155b611b275760405162461bcd60e51b815260206004820152602760248201527f6e756d47656e65726174696f6e73206d757374206265206265747765656e203560448201527f20616e64203230000000000000000000000000000000000000000000000000006064820152608401610a60565b66b1a2bc2ec500008510158015611b4657506706f05b59d3b200008511155b611bb85760405162461bcd60e51b815260206004820152602660248201527f726577617264526174696f206d757374206265206265747765656e203525206160448201527f6e642035302500000000000000000000000000000000000000000000000000006064820152608401610a60565b66b1a2bc2ec500008410158015611bd757506706f05b59d3b200008411155b611c495760405162461bcd60e51b815260206004820152602160248201527f4f526174696f206d757374206265206265747765656e20352520616e6420353060448201527f25000000000000000000000000000000000000000000000000000000000000006064820152608401610a60565b60006064611c936716744a6d6e950000611c6e60ff8b16670de0b6b3a7640000615282565b611c78919061523a565b611c8d60ff8b16670de0b6b3a7640000615282565b90612988565b611c9d91906152b7565b611ca8906064615282565b90506000611cc8611cc187670de0b6b3a764000061523a565b889061299d565b9050611cd4878761299d565b9550611cde6129a9565b7f303ee27bf3d9680bf2887a9a45e01153ae7148eaeedf9fa31e9f0655c88dc3bb54611d0c818b898b6129e3565b611d198a828b8587612b0c565b611d238186612d7b565b611d2d8187612ddd565b9998505050505050505050565b60607f99574a7094154bb123ae6ae102096f0bf9679b85a5cd1e727aaa0ae5f132e6b18054611d68906152cb565b80601f0160208091040260200160405190810160405280929190818152602001828054611d94906152cb565b8015611de15780601f10611db657610100808354040283529160200191611de1565b820191906000526020600020905b815481529060010190602001808311611dc457829003601f168201915b5050505050905090565b6000611df682612de7565b611e135760405163c1b843ef60e01b815260040160405180910390fd5b5060009081527f3c7bf052874fa81625121783266a03507bd2cd48b16e571c01a04e8dd3fb07a960205260409020546001600160a01b031690565b611e59828234612e13565b6000611e648261220f565b9050806001600160a01b0316836001600160a01b03161415611e995760405163424a22cb60e01b815260040160405180910390fd5b336001600160a01b03821614801590611ef557506001600160a01b03811660009081527f3c7bf052874fa81625121783266a03507bd2cd48b16e571c01a04e8dd3fb07aa6020908152604080832033845290915290205460ff16155b15611f1357604051632f5de44f60e01b815260040160405180910390fd5b60008281527f3c7bf052874fa81625121783266a03507bd2cd48b16e571c01a04e8dd3fb07a9602052604080822080546001600160a01b0319166001600160a01b0387811691821790925591518593918516917f8c5be1e5ebec7d5bd14f71427d1e84f3dd0314c0f7b2291e5b200ac8c7c3b92591a4505050565b600061097a7f3c7bf052874fa81625121783266a03507bd2cd48b16e571c01a04e8dd3fb07a6612e4b565b611fc583838334612e55565b611fcf338261214a565b611fec57604051632f5de44f60e01b815260040160405180910390fd5b6109ad838383612e92565b6001600160a01b03821660009081527f3c7bf052874fa81625121783266a03507bd2cd48b16e571c01a04e8dd3fb07a8602052604081206109be9083613048565b60008181527fddd7f088a4b6a284925c81eec4664f2100283a2fe65589ec37f6e381878d593e6020819052604090912054606091906109be9060ff16613054565b606060007fddd7f088a4b6a284925c81eec4664f2100283a2fe65589ec37f6e381878d593e905060405180606001604052806031815260200161554c603191396000848152602083905260409020546120d49060ff166131e9565b6040516020016120e5929190615306565b604051602081830303815290604052915050919050565b6109ad838383604051806020016040528060008152506123e6565b60006121437f3c7bf052874fa81625121783266a03507bd2cd48b16e571c01a04e8dd3fb07a68361331b565b5092915050565b600061215582612de7565b6121725760405163c1b843ef60e01b815260040160405180910390fd5b600061217d8361220f565b9050806001600160a01b0316846001600160a01b031614806121b85750836001600160a01b03166121ad84611deb565b6001600160a01b0316145b8061220757506001600160a01b0380821660009081527f3c7bf052874fa81625121783266a03507bd2cd48b16e571c01a04e8dd3fb07aa602090815260408083209388168352929052205460ff165b949350505050565b60008061223c7f3c7bf052874fa81625121783266a03507bd2cd48b16e571c01a04e8dd3fb07a684613337565b90506001600160a01b03811661096a576040517f7e1a7d8b00000000000000000000000000000000000000000000000000000000815260040160405180910390fd5b60006001600160a01b0382166122c0576040517f810ff97000000000000000000000000000000000000000000000000000000000815260040160405180910390fd5b6001600160a01b03821660009081527f3c7bf052874fa81625121783266a03507bd2cd48b16e571c01a04e8dd3fb07a86020526040902061096a90612e4b565b60607f99574a7094154bb123ae6ae102096f0bf9679b85a5cd1e727aaa0ae5f132e6b16001018054611d68906152cb565b6001600160a01b03821633141561235b5760405163424a22cb60e01b815260040160405180910390fd5b3360008181527f3c7bf052874fa81625121783266a03507bd2cd48b16e571c01a04e8dd3fb07aa602090815260408083206001600160a01b03871680855290835292819020805460ff191686151590811790915590519081529192917f17307eab39ab6107e8899845ad3d59bd9653f200f220920489ca2b5937696c31910160405180910390a35050565b6123f284848434612e55565b6123fc338361214a565b61241957604051632f5de44f60e01b815260040160405180910390fd5b6112fa84848484613343565b606061243082612de7565b612466576040517f2382d38000000000000000000000000000000000000000000000000000000000815260040160405180910390fd5b60008281527f99574a7094154bb123ae6ae102096f0bf9679b85a5cd1e727aaa0ae5f132e6b46020526040812080547f99574a7094154bb123ae6ae102096f0bf9679b85a5cd1e727aaa0ae5f132e6b19291906124c2906152cb565b80601f01602080910402602001604051908101604052809291908181526020018280546124ee906152cb565b801561253b5780601f106125105761010080835404028352916020019161253b565b820191906000526020600020905b81548152906001019060200180831161251e57829003601f168201915b505050505090506000826002018054612553906152cb565b80601f016020809104026020016040519081016040528092919081815260200182805461257f906152cb565b80156125cc5780601f106125a1576101008083540402835291602001916125cc565b820191906000526020600020905b8154815290600101906020018083116125af57829003601f168201915b505050505090508051600014156125e557509392505050565b8151156126185780826040516020016125ff929190615306565b6040516020818303038152906040529350505050919050565b80612622866131e9565b6040516020016125ff929190615306565b826001600160a01b0316846001600160a01b031614156126885760405162461bcd60e51b815260206004820152601060248201526f3a3930b739b332b9103a379039b2b63360811b6044820152606401610a60565b612693848484613390565b6126ae84848460405180602001604052806000815250613563565b6127205760405162461bcd60e51b815260206004820152603260248201527f4552433732313a207472616e7366657220746f206e6f6e20455243373231526560448201527f63656976657220696d706c656d656e74657200000000000000000000000000006064820152608401610a60565b60008281527f9e2510b4d59b813edef0dae2e1b6c87ee280a0f5524ef39bc6fe83ba371c55ca602052604081206003015460008051602061557d833981519152919083116127a257600084815260078301602052604081206003810185905560040180549161278e83615267565b919050555061279d858561365e565b6127e4565b6127ac8484613844565b60008581526007840160205260408120600381018690556004018054929350906127d583615267565b91905055506127e4858561365e565b60008481526008830160205260408120600181018054918390556001600160a81b0319821690556001600160a01b03169081612820848761523a565b604051600081818185875af1925050503d806000811461285c576040519150601f19603f3d011682016040523d82523d6000602084013e612861565b606091505b50509050806128d85760405162461bcd60e51b815260206004820152602560248201527f455243353137333a204661696c656420746f2073656e642045544820746f206c60448201527f69737465720000000000000000000000000000000000000000000000000000006064820152608401610a60565b5050505050505050565b6128eb816138ff565b60008181527fb57ad6294d0e41674b9139793b648baaa742e3cad058c7605a8d73c5bbd2e6016020819052604082208281556001810183905590917f331c87aea42537f4547366b85461b088f2a2915707f2d772a8abe244c71cb96391906129566002830182614b22565b50506000928352602052506040812080546001600160a01b03191681556001810191909155600201805460ff19169055565b60006109be83670de0b6b3a7640000846139a7565b60006109be8383613a8d565b60017f303ee27bf3d9680bf2887a9a45e01153ae7148eaeedf9fa31e9f0655c88dc3bb80546000906129dc908490615335565b9091555050565b60008481527fb57ad6294d0e41674b9139793b648baaa742e3cad058c7605a8d73c5bbd2e601602081815260408084208681556001810186905581518083019092527f1c5e8fa68a2e18767b1f14b74959cf2ccd4e7455f76450fee582330c15ede59d80546001600160a01b0390811684528916838501529489905291839052919291612a769160029081019190614b43565b50600181015460008781526020848152604080832085546001600160a01b031684526003019091529020819055612ab590670de0b6b3a764000061523a565b6000878152602084815260408083206001600160a01b038a16845260030190915280822092909255905187917fe33b4df6ca519196f49edc783e3efade92579814fa72600f8104e5db7439d4a691a2505050505050565b60008360ff16118015612b1f5750600082115b8015612b335750670de0b6b3a76400008211155b8015612b3f5750600081115b612b8b5760405162461bcd60e51b815260206004820152601360248201527f496e76616c6964204461746120506173736564000000000000000000000000006044820152606401610a60565b612b958585613b82565b612bb16000868660405180602001604052806000815250613563565b612c235760405162461bcd60e51b815260206004820152603260248201527f4552433732313a207472616e7366657220746f206e6f6e20455243373231526560448201527f63656976657220696d706c656d656e74657200000000000000000000000000006064820152608401610a60565b600060008051602061557d83398151915290506040518060e001604052808560ff1681526020018481526020018381526020016000815260200160018152602001600067ffffffffffffffff811115612c7e57612c7e614f4f565b604051908082528060200260200182016040528015612ca7578160200160208202803683370190505b5081526001602091820181905260008881526007850183526040908190208451815460ff191660ff90911617815584840151928101929092558301516002820155606083015160038201556080830151600482015560a083015180519192612d1792600585019290910190614b43565b5060c091909101516006909101805460ff191691151591909117905560009485526007016020908152604085206005018054600181018255908652942090930180546001600160a01b0319166001600160a01b039590951694909417909355505050565b60008281527f99574a7094154bb123ae6ae102096f0bf9679b85a5cd1e727aaa0ae5f132e6b46020908152604090912082517f99574a7094154bb123ae6ae102096f0bf9679b85a5cd1e727aaa0ae5f132e6b1926112fa929190850190614ba8565b6109948282613cbb565b600061096a7f3c7bf052874fa81625121783266a03507bd2cd48b16e571c01a04e8dd3fb07a683613d53565b80156109ad576040517fb56d7c1b00000000000000000000000000000000000000000000000000000000815260040160405180910390fd5b600061096a825490565b8015612e8d576040517f22b1813900000000000000000000000000000000000000000000000000000000815260040160405180910390fd5b6112fa565b816001600160a01b0316836001600160a01b03161415612ee75760405162461bcd60e51b815260206004820152601060248201526f3a3930b739b332b9103a379039b2b63360811b6044820152606401610a60565b612ef2838383613390565b60008051602061557d83398151915260005b6000838152600783016020526040902060050154811015612fc5576000838152600783016020526040902060050180546001600160a01b038616919083908110612f5057612f50615251565b6000918252602090912001546001600160a01b03161415612fb35760405162461bcd60e51b815260206004820181905260248201527f416c726561647920696e2074686520465220736c6964696e672077696e646f776044820152606401610a60565b80612fbd81615267565b915050612f04565b5060008281526008820160205260409020600190810154600160a01b900460ff1615151415613013576000828152600882016020526040812090815560010180546001600160a81b03191690555b600082815260078201602052604081206003810182905560040180549161303983615267565b91905055506112fa838361365e565b60006109be8383613d6b565b606060ff821661309757505060408051808201909152600781527f4342455f43433000000000000000000000000000000000000000000000000000602082015290565b600160ff831614156130dc57505060408051808201909152600781527f4342455f45435200000000000000000000000000000000000000000000000000602082015290565b600260ff8316141561312157505060408051808201909152600881527f4342455f4e454352000000000000000000000000000000000000000000000000602082015290565b600360ff8316141561316657505060408051808201909152600b81527f4342455f4e4543525f4853000000000000000000000000000000000000000000602082015290565b600460ff831614156131ab57505060408051808201909152600681527f4342455f50520000000000000000000000000000000000000000000000000000602082015290565b505060408051808201909152600981527f4342455f50525f48530000000000000000000000000000000000000000000000602082015290565b919050565b60608161322957505060408051808201909152600181527f3000000000000000000000000000000000000000000000000000000000000000602082015290565b8160005b8115613253578061323d81615267565b915061324c9050600a836152b7565b915061322d565b60008167ffffffffffffffff81111561326e5761326e614f4f565b6040519080825280601f01601f191660200182016040528015613298576020820181803683370190505b5090505b8415612207576132ad60018361523a565b91506132ba600a8661534d565b6132c5906030615335565b60f81b8183815181106132da576132da615251565b60200101907effffffffffffffffffffffffffffffffffffffffffffffffffffffffffffff1916908160001a905350613314600a866152b7565b945061329c565b600080808061332a8686613dd0565b9097909650945050505050565b60006109be8383613e4c565b61334e848484612e92565b61335a84848484613563565b6112fa576040517f9ff10cdd00000000000000000000000000000000000000000000000000000000815260040160405180910390fd5b600061339b8261220f565b9050836001600160a01b0316816001600160a01b0316146133e8576040517f0f2db4ad00000000000000000000000000000000000000000000000000000000815260040160405180910390fd5b6001600160a01b038316613428576040517f40311a0900000000000000000000000000000000000000000000000000000000815260040160405180910390fd5b613433848484613ec7565b6001600160a01b03841660009081527f3c7bf052874fa81625121783266a03507bd2cd48b16e571c01a04e8dd3fb07a8602052604090207f3c7bf052874fa81625121783266a03507bd2cd48b16e571c01a04e8dd3fb07a6906134969084613ed2565b506001600160a01b038416600090815260028201602052604090206134bb9084613ede565b506134c7818486613eea565b50600083815260038201602052604080822080546001600160a01b0319169055518491906001600160a01b038516907f8c5be1e5ebec7d5bd14f71427d1e84f3dd0314c0f7b2291e5b200ac8c7c3b925908390a482846001600160a01b0316866001600160a01b03167fddf252ad1be2c89b69c2b068fc378daa952ba7f163c4a11628f55a4df523b3ef60405160405180910390a45050505050565b60006001600160a01b0384163b61357c57506001612207565b600061362763150b7a0260e01b338887876040516024016135a09493929190615361565b604051602081830303815290604052907bffffffffffffffffffffffffffffffffffffffffffffffffffffffff19166020820180517bffffffffffffffffffffffffffffffffffffffffffffffffffffffff838183161783525050505060405180606001604052806032815260200161551a603291396001600160a01b0388169190613f00565b905060008180602001905181019061363f919061539d565b6001600160e01b031916630a85bd0160e11b1492505050949350505050565b60008181527f9e2510b4d59b813edef0dae2e1b6c87ee280a0f5524ef39bc6fe83ba371c55ca60205260409020805460059091015460008051602061557d8339815191529160ff1611156136ee576000918252600701602090815260408220600501805460018101825590835291200180546001600160a01b0319166001600160a01b0392909216919091179055565b60005b60008381526007830160205260409020600501546137119060019061523a565b8110156137bf5760008381526007830160205260409020600501613736826001615335565b8154811061374657613746615251565b600091825260208083209091015485835260078501909152604090912060050180546001600160a01b03909216918390811061378457613784615251565b600091825260209091200180546001600160a01b0319166001600160a01b0392909216919091179055806137b781615267565b9150506136f1565b50600082815260078201602052604090206005018054806137e2576137e26153ba565b60008281526020808220830160001990810180546001600160a01b0319908116909155930190935584815260078401835260408120600501805460018101825590825292902090910180546001600160a01b0386169216919091179055505050565b60006138508383613f0f565b600061385c8484614097565b60008581527f9e2510b4d59b813edef0dae2e1b6c87ee280a0f5524ef39bc6fe83ba371c55ca602052604081206003015491925060008051602061557d833981519152917fb57ad6294d0e41674b9139793b648baaa742e3cad058c7605a8d73c5bbd2e60191906138cd908761523a565b6000888152602084905260409020549091506138ea90829061299d565b6138f49085615335565b979650505050505050565b613908816142ca565b60008181527f9e2510b4d59b813edef0dae2e1b6c87ee280a0f5524ef39bc6fe83ba371c55ca60205260408120805460ff191681556001810182905560028101829055600381018290556004810182905560008051602061557d833981519152916139766005830182614b22565b50600601805460ff1916905560009182526008016020526040812090815560010180546001600160a81b0319169055565b6000808060001985870985870292508281108382030391505080600014156139e2578382816139d8576139d86152a1565b04925050506109be565b838110613a25576040517f773cc18c0000000000000000000000000000000000000000000000000000000081526004810182905260248101859052604401610a60565b600084868809600260036001881981018916988990049182028318808302840302808302840302808302840302808302840302808302840302918202909203026000889003889004909101858311909403939093029303949094049190911702949350505050565b60008080600019848609848602925082811083820303915050670de0b6b3a76400008110613aea576040517fd31b340200000000000000000000000000000000000000000000000000000000815260048101829052602401610a60565b600080670de0b6b3a76400008688099150506706f05b59d3b1ffff811182613b245780670de0b6b3a764000085040194505050505061096a565b6204000082850304939091119091037d40000000000000000000000000000000000000000000000000000000000002919091177faccb18165bd6fe31ae1cf318dc5b51eee0e1ba569b88cd74c1773b91fac106690201905092915050565b6001600160a01b038216613bc2576040517f23e5311a00000000000000000000000000000000000000000000000000000000815260040160405180910390fd5b613bcb81612de7565b15613c02576040517f6c35dbd800000000000000000000000000000000000000000000000000000000815260040160405180910390fd5b613c0e60008383613ec7565b6001600160a01b03821660009081527f3c7bf052874fa81625121783266a03507bd2cd48b16e571c01a04e8dd3fb07a8602052604090207f3c7bf052874fa81625121783266a03507bd2cd48b16e571c01a04e8dd3fb07a690613c719083613ede565b50613c7d818385613eea565b5060405182906001600160a01b038516906000907fddf252ad1be2c89b69c2b068fc378daa952ba7f163c4a11628f55a4df523b3ef908290a4505050565b60058160ff161115613d0f5760405162461bcd60e51b815260206004820152600f60248201527f496e76616c6964204c6963656e736500000000000000000000000000000000006044820152606401610a60565b60007fddd7f088a4b6a284925c81eec4664f2100283a2fe65589ec37f6e381878d593e6000938452602052506040909120805460ff191660ff909216919091179055565b600081815260018301602052604081205415156109be565b81546000908210613da8576040517fe637bf3b00000000000000000000000000000000000000000000000000000000815260040160405180910390fd5b826000018281548110613dbd57613dbd615251565b9060005260206000200154905092915050565b815460009081908310613e0f576040517f117ec13800000000000000000000000000000000000000000000000000000000815260040160405180910390fd5b6000846000018481548110613e2657613e26615251565b906000526020600020906002020190508060000154816001015492509250509250929050565b600081815260018301602052604081205480613e94576040517ff551fb1400000000000000000000000000000000000000000000000000000000815260040160405180910390fd5b836000016001820381548110613eac57613eac615251565b90600052602060002090600202016001015491505092915050565b6109ad8383836143e2565b60006109be83836143ed565b60006109be83836144a7565b600061220784846001600160a01b0385166144ea565b60606122078484600085614587565b60008281527f9e2510b4d59b813edef0dae2e1b6c87ee280a0f5524ef39bc6fe83ba371c55ca602052604081206003015460008051602061557d833981519152917fb57ad6294d0e41674b9139793b648baaa742e3cad058c7605a8d73c5bbd2e60191613f7c908561523a565b60008681526020849052604081205491925090613f9a90839061299d565b905060005b60008781526020859052604090206002015481101561405f576000878152602085905260408120600201805483908110613fdb57613fdb615251565b60009182526020808320909101548a835287825260408084206001600160a01b03909216808552600390920190925291205490915061401b90849061299d565b6001600160a01b038216600090815260018701602052604081208054909190614045908490615335565b90915550829150614057905081615267565b915050613f9f565b508085877f203f543c39cd9297a8eb66a22189a127d3e94b5e54d52bfef63fec603138edf160405160405180910390a4505050505050565b60008281527f9e2510b4d59b813edef0dae2e1b6c87ee280a0f5524ef39bc6fe83ba371c55ca60209081526040808320600501805482518185028101850190935280835260008051602061557d83398151915293859392919083018282801561412957602002820191906000526020600020905b81546001600160a01b0316815260019091019060200180831161410b575b505050505090506001815103815280516000141561414c5760009250505061096a565b600085815260078301602052604081206003015461416a908661523a565b60008781526007850160205260408120600180820154600283015460049093015494955092936141cc938693909290916141a4919061523a565b60008c815260078a0160205260409020546141c49060019060ff166153d0565b60ff1661465d565b905060005b815181101561426f578181815181106141ec576141ec615251565b60200260200101518560090160008760070160008c8152602001908152602001600020600501848154811061422357614223615251565b60009182526020808320909101546001600160a01b0316835282019290925260400181208054909190614257908490615335565b9091555081905061426781615267565b9150506141d1565b50600087815260078501602052604090206001015461428f90839061299d565b94508486887f0362ef0ca7c60bdd7789f855ba29ed06265c4c942f6562c9e0007dbcb1e107c760405160405180910390a45050505092915050565b60006142d58261220f565b90506142e381600084613ec7565b6001600160a01b03811660009081527f3c7bf052874fa81625121783266a03507bd2cd48b16e571c01a04e8dd3fb07a8602052604090207f3c7bf052874fa81625121783266a03507bd2cd48b16e571c01a04e8dd3fb07a6906143469084613ed2565b5061435181846147b8565b50600083815260038201602052604080822080546001600160a01b0319169055518491906001600160a01b038516907f8c5be1e5ebec7d5bd14f71427d1e84f3dd0314c0f7b2291e5b200ac8c7c3b925908390a460405183906000906001600160a01b038516907fddf252ad1be2c89b69c2b068fc378daa952ba7f163c4a11628f55a4df523b3ef908390a4505050565b6109ad8383836147c4565b600081815260018301602052604081205480156121435783546000908590600019810190811061441f5761441f615251565b906000526020600020015490508085600001600184038154811061444557614445615251565b6000918252602080832090910192909255918252600186019052604090208190558354849080614477576144776153ba565b60008281526020808220830160001990810183905590920190925593815260019485019093525050604081205590565b600081815260018301602052604081205461096a575081546001808201845560008481526020808220909301849055845493815293810190915260409092205590565b60008281526001840160205260408120548061454f5750506040805180820182528381526020808201848152865460018181018955600089815284812095516002909302909501918255915190820155865486845281880190925292909120556109be565b8285600001600183038154811061456857614568615251565b90600052602060002090600202016001018190555060009150506109be565b6060843b6145c1576040517f89c35afc00000000000000000000000000000000000000000000000000000000815260040160405180910390fd5b600080866001600160a01b031685876040516145dd91906153f3565b60006040518083038185875af1925050503d806000811461461a576040519150601f19603f3d011682016040523d82523d6000602084013e61461f565b606091505b509150915081156146335791506122079050565b8051156146435780518082602001fd5b8360405162461bcd60e51b8152600401610a609190614cf2565b6060600061466b8484614808565b905060008167ffffffffffffffff81111561468857614688614f4f565b6040519080825280602002602001820160405280156146b1578160200160208202803683370190505b50905060015b6146c2836001615335565b8110156147ac57600087670de0b6b3a7640000146147615760006146e6898661481e565b6146f890670de0b6b3a764000061540f565b9050600061471161470a60018661523a565b8b9061481e565b9050600061471f8d8d6148ee565b9050600061473f6147388d670de0b6b3a764000061540f565b83906148ee565b90508361474c848361544e565b61475691906154d5565b945050505050614772565b61476f84611c8d8c8c61299d565b90505b808361477e848761523a565b8151811061478e5761478e615251565b602090810291909101015250806147a481615267565b9150506146b7565b50979650505050505050565b60006109be83836149e5565b6001600160a01b0382166109ad5760008181527f99574a7094154bb123ae6ae102096f0bf9679b85a5cd1e727aaa0ae5f132e6b4602052604081206109ad91614c1c565b600081831061481757816109be565b5090919050565b60008061482a84614acd565b9050600080846001161161484657670de0b6b3a7640000614848565b815b9050600184901c5b8015614880576148608384613a8d565b92506001811615614878576148758284613a8d565b91505b60011c614850565b6001600160ff1b038211156148c4576040517fffb15bcd00000000000000000000000000000000000000000000000000000000815260048101839052602401610a60565b600080871280156148d85750856001166001145b9050806148e557826138f4565b6138f483615503565b6000600160ff1b8314806149055750600160ff1b82145b1561493c576040517f3406846c00000000000000000000000000000000000000000000000000000000815260040160405180910390fd5b6000806000851261494d5784614952565b846000035b9150600084126149625783614967565b836000035b905060006149758383613a8d565b90506001600160ff1b038111156149bb576040517fbf79e8d900000000000000000000000000000000000000000000000000000000815260048101829052602401610a60565b6000198087139086138082186001146149d457826149d9565b826000035b98975050505050505050565b60008181526001830160205260408120548015614ac357835460009085906000198101908110614a1757614a17615251565b9060005260206000209060020201905080856000016001840381548110614a4057614a40615251565b6000918252602080832084546002909302019182556001938401549184019190915592548152908601909152604090208190558354849080614a8457614a846153ba565b600082815260208082206002600019909401938402018281556001908101839055929093558581528682019092526040822091909155915061096a9050565b600091505061096a565b6000600160ff1b821415614b0d576040517f741d0b8c00000000000000000000000000000000000000000000000000000000815260040160405180910390fd5b60008212614b1b578161096a565b5060000390565b5080546000825590600052602060002090810190614b409190614c52565b50565b828054828255906000526020600020908101928215614b98579160200282015b82811115614b9857825182546001600160a01b0319166001600160a01b03909116178255602090920191600190910190614b63565b50614ba4929150614c52565b5090565b828054614bb4906152cb565b90600052602060002090601f016020900481019282614bd65760008555614b98565b82601f10614bef57805160ff1916838001178555614b98565b82800160010185558215614b98579182015b82811115614b98578251825591602001919060010190614c01565b508054614c28906152cb565b6000825580601f10614c38575050565b601f016020900490600052602060002090810190614b4091905b5b80821115614ba45760008155600101614c53565b6001600160e01b031981168114614b4057600080fd5b600060208284031215614c8f57600080fd5b81356109be81614c67565b60005b83811015614cb5578181015183820152602001614c9d565b838111156112fa5750506000910152565b60008151808452614cde816020860160208601614c9a565b601f01601f19169290920160200192915050565b6020815260006109be6020830184614cc6565b600060208284031215614d1757600080fd5b5035919050565b6001600160a01b0381168114614b4057600080fd5b60008060408385031215614d4657600080fd5b8235614d5181614d1e565b946020939093013593505050565b600080600080600060808688031215614d7757600080fd5b8535614d8281614d1e565b94506020860135614d9281614d1e565b935060408601359250606086013567ffffffffffffffff80821115614db657600080fd5b818801915088601f830112614dca57600080fd5b813581811115614dd957600080fd5b896020828501011115614deb57600080fd5b9699959850939650602001949392505050565b600080600060608486031215614e1357600080fd5b8335614e1e81614d1e565b92506020840135614e2e81614d1e565b929592945050506040919091013590565b600060208284031215614e5157600080fd5b81356109be81614d1e565b600080600060608486031215614e7157600080fd5b833592506020840135614e2e81614d1e565b60008060408385031215614e9657600080fd5b50508035926020909101359150565b600081518084526020808501945080840160005b83811015614ede5781516001600160a01b031687529582019590820190600101614eb9565b509495945050505050565b838152826020820152606060408201526000614f086060830184614ea5565b95945050505050565b60008060408385031215614f2457600080fd5b8235614f2f81614d1e565b915060208301358015158114614f4457600080fd5b809150509250929050565b634e487b7160e01b600052604160045260246000fd5b600067ffffffffffffffff80841115614f8057614f80614f4f565b604051601f8501601f19908116603f01168101908282118183101715614fa857614fa8614f4f565b81604052809350858152868686011115614fc157600080fd5b858560208301376000602087830101525050509392505050565b60008060008060808587031215614ff157600080fd5b8435614ffc81614d1e565b9350602085013561500c81614d1e565b925060408501359150606085013567ffffffffffffffff81111561502f57600080fd5b8501601f8101871361504057600080fd5b61504f87823560208401614f65565b91505092959194509250565b803560ff811681146131e457600080fd5b600082601f83011261507d57600080fd5b6109be83833560208501614f65565b600080600080600080600060e0888a0312156150a757600080fd5b87356150b281614d1e565b9650602088013595506150c76040890161505b565b945060608801359350608088013592506150e360a0890161505b565b915060c088013567ffffffffffffffff8111156150ff57600080fd5b61510b8a828b0161506c565b91505092959891949750929550565b60ff8716815285602082015284604082015283606082015282608082015260c060a082015260006149d960c0830184614ea5565b6000806040838503121561516157600080fd5b823561516c81614d1e565b91506020830135614f4481614d1e565b60008060008060008060c0878903121561519557600080fd5b86356151a081614d1e565b95506151ae6020880161505b565b945060408701359350606087013592506151ca6080880161505b565b915060a087013567ffffffffffffffff8111156151e657600080fd5b6151f289828a0161506c565b9150509295509295509295565b6000806040838503121561521257600080fd5b823591506020830135614f4481614d1e565b634e487b7160e01b600052601160045260246000fd5b60008282101561524c5761524c615224565b500390565b634e487b7160e01b600052603260045260246000fd5b600060001982141561527b5761527b615224565b5060010190565b600081600019048311821515161561529c5761529c615224565b500290565b634e487b7160e01b600052601260045260246000fd5b6000826152c6576152c66152a1565b500490565b600181811c908216806152df57607f821691505b6020821081141561530057634e487b7160e01b600052602260045260246000fd5b50919050565b60008351615318818460208801614c9a565b83519083019061532c818360208801614c9a565b01949350505050565b6000821982111561534857615348615224565b500190565b60008261535c5761535c6152a1565b500690565b60006001600160a01b038087168352808616602084015250836040830152608060608301526153936080830184614cc6565b9695505050505050565b6000602082840312156153af57600080fd5b81516109be81614c67565b634e487b7160e01b600052603160045260246000fd5b600060ff821660ff8416808210156153ea576153ea615224565b90039392505050565b60008251615405818460208701614c9a565b9190910192915050565b600080831283600160ff1b0183128115161561542d5761542d615224565b836001600160ff1b0301831381161561544857615448615224565b50500390565b60006001600160ff1b0360008413600084138583048511828216161561547657615476615224565b600160ff1b600087128682058812818416161561549557615495615224565b600087129250878205871284841616156154b1576154b1615224565b878505871281841616156154c7576154c7615224565b505050929093029392505050565b6000826154e4576154e46152a1565b600160ff1b8214600019841416156154fe576154fe615224565b500590565b6000600160ff1b821415614b1b57614b1b61522456fe4552433732313a207472616e7366657220746f206e6f6e20455243373231526563656976657220696d706c656d656e74657261723a2f2f5f44396b4e3157724e576243713535425341475262544234625333763851415054596d42546853625833412f9e2510b4d59b813edef0dae2e1b6c87ee280a0f5524ef39bc6fe83ba371c55c3a2646970667358221220da5d04c2fffea62ee6c01f1eb48e6b291170a7db250c60ca934d40b02790329264736f6c63430008080033",
  "devdoc": {
    "kind": "dev",
    "methods": {
      "approve(address,uint256)": {
        "params": {
          "operator": "address to be approved",
          "tokenId": "token to approve"
        }
      },
      "balanceOf(address)": {
        "returns": {
          "_0": "quantity of tokens held"
        }
      },
      "getApproved(uint256)": {
        "params": {
          "tokenId": "token to query"
        },
        "returns": {
          "_0": "address approved to spend token"
        }
      },
      "isApprovedForAll(address,address)": {
        "params": {
          "account": "address to query for approval granted",
          "operator": "address to query for approval received"
        },
        "returns": {
          "_0": "whether operator is approved to spend tokens held by account"
        }
      },
      "ownerOf(uint256)": {
        "params": {
          "tokenId": "token to query"
        },
        "returns": {
          "_0": "token owner"
        }
      },
      "safeTransferFrom(address,address,uint256)": {
        "params": {
          "from": "sender of token",
          "to": "receiver of token",
          "tokenId": "token id"
        }
      },
      "safeTransferFrom(address,address,uint256,bytes)": {
        "params": {
          "data": "data payload",
          "from": "sender of token",
          "to": "receiver of token",
          "tokenId": "token id"
        }
      },
      "setApprovalForAll(address,bool)": {
        "params": {
          "operator": "address to be approved",
          "status": "approval status"
        }
      },
      "supportsInterface(bytes4)": {
        "params": {
          "interfaceId": "interface id"
        },
        "returns": {
          "_0": "bool whether interface is supported"
        }
      },
      "tokenByIndex(uint256)": {
        "params": {
          "index": "position in global token list to query"
        },
        "returns": {
          "_0": "id of retrieved token"
        }
      },
      "tokenOfOwnerByIndex(address,uint256)": {
        "params": {
          "index": "position in owner's token list to query",
          "owner": "token holder to query"
        },
        "returns": {
          "_0": "id of retrieved token"
        }
      },
      "totalSupply()": {
        "returns": {
          "_0": "total supply"
        }
      },
      "transferFrom(address,address,uint256)": {
        "params": {
          "from": "sender of token",
          "to": "receiver of token",
          "tokenId": "token id"
        }
      }
    },
    "version": 1
  },
  "userdoc": {
    "errors": {
      "PRBMathSD59x18__AbsInputTooSmall()": [
        {
          "notice": "Emitted when the input is MIN_SD59x18."
        }
      ],
      "PRBMathSD59x18__MulInputTooSmall()": [
        {
          "notice": "Emitted when one of the inputs is MIN_SD59x18."
        }
      ],
      "PRBMathSD59x18__MulOverflow(uint256)": [
        {
          "notice": "Emitted when the intermediary absolute result overflows SD59x18."
        }
      ],
      "PRBMathSD59x18__PowuOverflow(uint256)": [
        {
          "notice": "Emitted when the intermediary absolute result overflows SD59x18."
        }
      ],
      "PRBMath__MulDivFixedPointOverflow(uint256)": [
        {
          "notice": "Emitted when the result overflows uint256."
        }
      ],
      "PRBMath__MulDivOverflow(uint256,uint256)": [
        {
          "notice": "Emitted when the result overflows uint256."
        }
      ]
    },
    "kind": "user",
    "methods": {
      "approve(address,uint256)": {
        "notice": "grant approval to given account to spend token"
      },
      "balanceOf(address)": {
        "notice": "query the balance of given address"
      },
      "getApproved(uint256)": {
        "notice": "get approval status for given token"
      },
      "isApprovedForAll(address,address)": {
        "notice": "query approval status of given operator with respect to given address"
      },
      "name()": {
        "notice": "inheritdoc IERC721Metadata"
      },
      "ownerOf(uint256)": {
        "notice": "query the owner of given token"
      },
      "safeTransferFrom(address,address,uint256)": {
        "notice": "transfer token between given addresses, checking for ERC721Receiver implementation if applicable"
      },
      "safeTransferFrom(address,address,uint256,bytes)": {
        "notice": "transfer token between given addresses, checking for ERC721Receiver implementation if applicable"
      },
      "setApprovalForAll(address,bool)": {
        "notice": "grant approval to or revoke approval from given account to spend all tokens held by sender"
      },
      "supportsInterface(bytes4)": {
        "notice": "query whether contract has registered support for given interface"
      },
      "symbol()": {
        "notice": "inheritdoc IERC721Metadata"
      },
      "tokenByIndex(uint256)": {
        "notice": "get token at given internal storage index"
      },
      "tokenOfOwnerByIndex(address,uint256)": {
        "notice": "get token of given owner at given internal storage index"
      },
      "tokenURI(uint256)": {
        "notice": "inheritdoc IERC721Metadata"
      },
      "totalSupply()": {
        "notice": "get total token supply"
      },
      "transferFrom(address,address,uint256)": {
        "notice": "transfer token between given addresses, without checking for ERC721Receiver implementation if applicable"
      }
    },
    "version": 1
  },
  "storageLayout": {
    "storage": [],
    "types": null
  }
}