{
  "address": "0x79eA5D780Cd5C32489B557db5029EcD8F9041Cf0",
  "abi": [
    {
      "inputs": [
        {
          "internalType": "address",
          "name": "untradingManager",
          "type": "address"
        },
        {
          "internalType": "uint256",
          "name": "managerCut",
          "type": "uint256"
        },
        {
          "internalType": "string",
          "name": "name",
          "type": "string"
        },
        {
          "internalType": "string",
          "name": "symbol",
          "type": "string"
        },
        {
          "internalType": "string",
          "name": "baseURI",
          "type": "string"
        }
      ],
      "stateMutability": "nonpayable",
      "type": "constructor"
    },
    {
      "inputs": [],
      "name": "DiamondWritable__InvalidInitializationParameters",
      "type": "error"
    },
    {
      "inputs": [],
      "name": "DiamondWritable__RemoveTargetNotZeroAddress",
      "type": "error"
    },
    {
      "inputs": [],
      "name": "DiamondWritable__ReplaceTargetIsIdentical",
      "type": "error"
    },
    {
      "inputs": [],
      "name": "DiamondWritable__SelectorAlreadyAdded",
      "type": "error"
    },
    {
      "inputs": [],
      "name": "DiamondWritable__SelectorIsImmutable",
      "type": "error"
    },
    {
      "inputs": [],
      "name": "DiamondWritable__SelectorNotFound",
      "type": "error"
    },
    {
      "inputs": [],
      "name": "DiamondWritable__SelectorNotSpecified",
      "type": "error"
    },
    {
      "inputs": [],
      "name": "DiamondWritable__TargetHasNoCode",
      "type": "error"
    },
    {
      "inputs": [],
      "name": "ERC165Base__InvalidInterfaceId",
      "type": "error"
    },
    {
      "inputs": [],
      "name": "Ownable__NotOwner",
      "type": "error"
    },
    {
      "inputs": [],
      "name": "Ownable__NotTransitiveOwner",
      "type": "error"
    },
    {
      "inputs": [],
      "name": "Proxy__ImplementationIsNotContract",
      "type": "error"
    },
    {
      "inputs": [],
      "name": "SafeOwnable__NotNomineeOwner",
      "type": "error"
    },
    {
      "anonymous": false,
      "inputs": [
        {
          "components": [
            {
              "internalType": "address",
              "name": "target",
              "type": "address"
            },
            {
              "internalType": "enum IDiamondWritableInternal.FacetCutAction",
              "name": "action",
              "type": "uint8"
            },
            {
              "internalType": "bytes4[]",
              "name": "selectors",
              "type": "bytes4[]"
            }
          ],
          "indexed": false,
          "internalType": "struct IDiamondWritableInternal.FacetCut[]",
          "name": "facetCuts",
          "type": "tuple[]"
        },
        {
          "indexed": false,
          "internalType": "address",
          "name": "target",
          "type": "address"
        },
        {
          "indexed": false,
          "internalType": "bytes",
          "name": "data",
          "type": "bytes"
        }
      ],
      "name": "DiamondCut",
      "type": "event"
    },
    {
      "anonymous": false,
      "inputs": [
        {
          "indexed": true,
          "internalType": "address",
          "name": "previousOwner",
          "type": "address"
        },
        {
          "indexed": true,
          "internalType": "address",
          "name": "newOwner",
          "type": "address"
        }
      ],
      "name": "OwnershipTransferred",
      "type": "event"
    },
    {
      "stateMutability": "payable",
      "type": "fallback"
    },
    {
      "inputs": [],
      "name": "acceptOwnership",
      "outputs": [],
      "stateMutability": "nonpayable",
      "type": "function"
    },
    {
      "inputs": [
        {
          "components": [
            {
              "internalType": "address",
              "name": "target",
              "type": "address"
            },
            {
              "internalType": "enum IDiamondWritableInternal.FacetCutAction",
              "name": "action",
              "type": "uint8"
            },
            {
              "internalType": "bytes4[]",
              "name": "selectors",
              "type": "bytes4[]"
            }
          ],
          "internalType": "struct IDiamondWritableInternal.FacetCut[]",
          "name": "facetCuts",
          "type": "tuple[]"
        },
        {
          "internalType": "address",
          "name": "target",
          "type": "address"
        },
        {
          "internalType": "bytes",
          "name": "data",
          "type": "bytes"
        }
      ],
      "name": "diamondCut",
      "outputs": [],
      "stateMutability": "nonpayable",
      "type": "function"
    },
    {
      "inputs": [
        {
          "internalType": "bytes4",
          "name": "selector",
          "type": "bytes4"
        }
      ],
      "name": "facetAddress",
      "outputs": [
        {
          "internalType": "address",
          "name": "facet",
          "type": "address"
        }
      ],
      "stateMutability": "view",
      "type": "function"
    },
    {
      "inputs": [],
      "name": "facetAddresses",
      "outputs": [
        {
          "internalType": "address[]",
          "name": "addresses",
          "type": "address[]"
        }
      ],
      "stateMutability": "view",
      "type": "function"
    },
    {
      "inputs": [
        {
          "internalType": "address",
          "name": "facet",
          "type": "address"
        }
      ],
      "name": "facetFunctionSelectors",
      "outputs": [
        {
          "internalType": "bytes4[]",
          "name": "selectors",
          "type": "bytes4[]"
        }
      ],
      "stateMutability": "view",
      "type": "function"
    },
    {
      "inputs": [],
      "name": "facets",
      "outputs": [
        {
          "components": [
            {
              "internalType": "address",
              "name": "target",
              "type": "address"
            },
            {
              "internalType": "bytes4[]",
              "name": "selectors",
              "type": "bytes4[]"
            }
          ],
          "internalType": "struct IDiamondReadable.Facet[]",
          "name": "diamondFacets",
          "type": "tuple[]"
        }
      ],
      "stateMutability": "view",
      "type": "function"
    },
    {
      "inputs": [],
      "name": "getFallbackAddress",
      "outputs": [
        {
          "internalType": "address",
          "name": "fallbackAddress",
          "type": "address"
        }
      ],
      "stateMutability": "view",
      "type": "function"
    },
    {
      "inputs": [],
      "name": "nomineeOwner",
      "outputs": [
        {
          "internalType": "address",
          "name": "",
          "type": "address"
        }
      ],
      "stateMutability": "view",
      "type": "function"
    },
    {
      "inputs": [],
      "name": "owner",
      "outputs": [
        {
          "internalType": "address",
          "name": "",
          "type": "address"
        }
      ],
      "stateMutability": "view",
      "type": "function"
    },
    {
      "inputs": [
        {
          "internalType": "address",
          "name": "fallbackAddress",
          "type": "address"
        }
      ],
      "name": "setFallbackAddress",
      "outputs": [],
      "stateMutability": "nonpayable",
      "type": "function"
    },
    {
      "inputs": [
        {
          "internalType": "bytes4",
          "name": "interfaceId",
          "type": "bytes4"
        }
      ],
      "name": "supportsInterface",
      "outputs": [
        {
          "internalType": "bool",
          "name": "",
          "type": "bool"
        }
      ],
      "stateMutability": "view",
      "type": "function"
    },
    {
      "inputs": [
        {
          "internalType": "address",
          "name": "account",
          "type": "address"
        }
      ],
      "name": "transferOwnership",
      "outputs": [],
      "stateMutability": "nonpayable",
      "type": "function"
    },
    {
      "stateMutability": "payable",
      "type": "receive"
    }
  ],
  "transactionHash": "0xa478ae14060fba5faeadafe739130431167e9ae9773c601e3e83fd1de71bd69b",
  "args": [
    "0x00Ec30bb1eBd8ae63A54490543d2766279c96022",
    "0",
    "untrading Shared Contract",
    "unNFT",
    ""
  ],
  "numDeployments": 1,
  "solcInputHash": "0b0aa99fcf52f26cadfdf2681ca5c806",
  "bytecode": "0x60806040523480156200001157600080fd5b506040516200320c3803806200320c833981016040819052620000349162001137565b60408051600c8082526101a0820190925260009160208201610180803683370190505090506000632c40805960e01b82826200007081620011f3565b9350815181106200008557620000856200121d565b6001600160e01b031990921660209283029190910190910152639142376560e01b8282620000b381620011f3565b935081518110620000c857620000c86200121d565b6001600160e01b031990921660209283029190910190910152620000f5632f40adcf60e21b600162000652565b6307e4c70760e21b82826200010a81620011f3565b9350815181106200011f576200011f6200121d565b6001600160e01b0319909216602092830291909101909101526200014c6307e4c70760e21b600162000652565b637a0ed62760e01b82826200016181620011f3565b9350815181106200017657620001766200121d565b6001600160e01b0319909216602092830291909101909101526356fe50af60e11b8282620001a481620011f3565b935081518110620001b957620001b96200121d565b6001600160e01b0319909216602092830291909101909101526314bbdacb60e21b8282620001e781620011f3565b935081518110620001fc57620001fc6200121d565b6001600160e01b0319909216602092830291909101909101526366ffd66360e11b82826200022a81620011f3565b9350815181106200023f576200023f6200121d565b6001600160e01b0319909216602092830291909101909101526200026c6348e2b09360e01b600162000652565b6301ffc9a760e01b82826200028181620011f3565b9350815181106200029657620002966200121d565b6001600160e01b031990921660209283029190910190910152620002c36301ffc9a760e01b600162000652565b638da5cb5b60e01b8282620002d881620011f3565b935081518110620002ed57620002ed6200121d565b6001600160e01b03199092166020928302919091019091015263455a8a8560e11b82826200031b81620011f3565b9350815181106200033057620003306200121d565b6001600160e01b03199092166020928302919091019091015263f2fde38b60e01b82826200035e81620011f3565b9350815181106200037357620003736200121d565b6001600160e01b0319909216602092830291909101909101526379ba509760e01b8282620003a181620011f3565b935081518110620003b657620003b66200121d565b6001600160e01b031990921660209283029190910190910152620003e36307f5828d60e41b600162000652565b604080516001808252818301909252600091816020015b60408051606080820183526000808352602083015291810191909152815260200190600190039081620003fa579050506040805160608101909152308152909150602081016000815260200184815250816000815181106200046057620004606200121d565b60200260200101819052506200048e81600060405180602001604052806000815250620006c460201b60201c565b6200049933620008a4565b505050670de0b6b3a7640000841115620004f95760405162461bcd60e51b815260206004820152601760248201527f6d616e6167657243757420657863656564732031303025000000000000000000604482015260640160405180910390fd5b6000620005106200091860201b62000d181760201c565b845190915062000527908290602087019062000fb7565b5082516200053f906001830190602086019062000fb7565b50815162000557906002830190602085019062000fb7565b5060016200056f6200093c60201b62000d3c1760201c565b6301ffc9a760e01b6000908152602091825260409020805460ff191692151592909217909155600190620005ac906200093c811b62000d3c17901c565b6380ac58cd60e01b6000908152602091825260409020805460ff191692151592909217909155600190620005e9906200093c811b62000d3c17901c565b63ba64365760e01b6000908152602091825260408120805460ff191693151593909317909255620006239062000960811b62000d6017901c565b80546001600160a01b0319166001600160a01b03989098169790971787555050505060019092015550620013d9565b6001600160e01b031980831614156200067e5760405163b0a19dd560e01b815260040160405180910390fd5b80620006946200093c60201b62000d3c1760201c565b6001600160e01b03199390931660009081526020939093526040909220805460ff19169215159290921790915550565b6000620006db6200098460201b62000d841760201c565b600181015490915061ffff8116908190600090600716156200070f5750600381901c60009081526002840160205260409020545b60005b8751811015620008125760008882815181106200073357620007336200121d565b60200260200101519050600081602001519050816040015151600014156200076e5760405163eb6c3aeb60e01b815260040160405180910390fd5b600081600281111562000785576200078562001233565b1415620007a5576200079a87868685620009a8565b909550935062000807565b6001816002811115620007bc57620007bc62001233565b1415620007d557620007cf878362000b07565b62000807565b6002816002811115620007ec57620007ec62001233565b14156200080757620008018786868562000c66565b90955093505b505060010162000712565b508282146200082f5760018401805461ffff191661ffff84161790555b60078216156200085257600382901c600090815260028501602052604090208190555b7f8faa70878671ccd212d20771b795c50af8fd3ff6cf27f4bde57e5d4de0aeb673878787604051620008879392919062001277565b60405180910390a16200089b868662000e8c565b50505050505050565b6000620008bb62000f8d60201b62000da81760201c565b80546040519192506001600160a01b03808516929116907f8be0079c531659141344cd1fd0a4f28419497f9722a3daafe3b4186f6b6457e090600090a380546001600160a01b0319166001600160a01b0392909216919091179055565b7f99574a7094154bb123ae6ae102096f0bf9679b85a5cd1e727aaa0ae5f132e6b190565b7ffc606c433378e3a7e0a6a531deac289b66caa1b4aa8554fd4ab2c6f1570f92d890565b7f1c5e8fa68a2e18767b1f14b74959cf2ccd4e7455f76450fee582330c15ede59d90565b7f177481ac65e4292921c69f62d1cc7f57541261e5d61c8175cf4e36a01c9bfc9390565b805160009081906001600160a01b03163014801590620009e85750620009e683600001516001600160a01b031662000fb160201b620003581760201c565b155b1562000a0757604051633ddc5cab60e21b815260040160405180910390fd5b60005b83604001515181101562000afa5760008460400151828151811062000a335762000a336200121d565b6020908102919091018101516001600160e01b031981166000908152918a9052604090912054909150606081901c1562000a8057604051634923a77160e11b815260040160405180910390fd5b85516001600160e01b0319838116600081815260208d90526040902060609390931b6001600160601b0319168b1790925560058a901b60e090811692831c91831c1999909916179781141562000aea57600389901c600090815260028b0160205260408120989098555b5050506001958601950162000a0a565b5093959294509192505050565b62000b2a81600001516001600160a01b031662000fb160201b620003581760201c565b62000b4857604051633ddc5cab60e21b815260040160405180910390fd5b60005b81604001515181101562000c615760008260400151828151811062000b745762000b746200121d565b6020908102919091018101516001600160e01b03198116600090815291869052604090912054909150606081901c8062000bc1576040516337e25a9760e11b815260040160405180910390fd5b6001600160a01b03811630141562000bec5760405163e983573160e01b815260040160405180910390fd5b84516001600160a01b038281169116141562000c1b576040516330baabf360e11b815260040160405180910390fd5b5083516001600160e01b031992909216600090815260208690526040902060609290921b6001600160601b0319166001600160601b039190911617905560010162000b4b565b505050565b805160009081906001600160a01b03161562000c9557604051633ab3490960e21b815260040160405180910390fd5b600385901c6007861660005b85604001515181101562000e785760008660400151828151811062000cca5762000cca6200121d565b6020908102919091018101516001600160e01b031981166000908152918c9052604090912054909150606081901c62000d16576040516337e25a9760e11b815260040160405180910390fd5b606081901c30141562000d3c5760405163e983573160e01b815260040160405180910390fd5b8862000d6657600019909401600081815260028c0160205260409020549850936007935062000d6e565b600019909301925b600584901b89901b6000806001600160e01b03198084169086161462000dc1576001600160e01b03198316600090815260208f90526040902080546001600160601b0319166001600160601b0386161790555b50506001600160e01b03198316600090815260208d90526040812055611fff600383901c1660e0600584901b1687821462000e2657600082815260028f016020526040902080546001600160e01b031980841c19909116908516831c17905562000e4a565b80836001600160e01b031916901c816001600160e01b031960001b901c198d16179b505b8662000e6657600088815260028f01602052604081208190559b505b50506001909301925062000ca1915050565b5060039190911b1796939550929350505050565b8051156001600160a01b038316151462000eb9576040516326df4ccd60e01b815260040160405180910390fd5b6001600160a01b0382161562000f89576001600160a01b038216301462000f175762000ef9826001600160a01b031662000fb160201b620003581760201c565b62000f1757604051633ddc5cab60e21b815260040160405180910390fd5b6000826001600160a01b03168260405162000f3391906200137e565b600060405180830381855af49150503d806000811462000f70576040519150601f19603f3d011682016040523d82523d6000602084013e62000f75565b606091505b505090508062000c61573d6000803e3d6000fd5b5050565b7f8a22373512790c48b83a1fe2efdd2888d4a917bcdc24d0adf63e60f67168046090565b3b151590565b82805462000fc5906200139c565b90600052602060002090601f01602090048101928262000fe9576000855562001034565b82601f106200100457805160ff191683800117855562001034565b8280016001018555821562001034579182015b828111156200103457825182559160200191906001019062001017565b506200104292915062001046565b5090565b5b8082111562001042576000815560010162001047565b634e487b7160e01b600052604160045260246000fd5b60005b838110156200109057818101518382015260200162001076565b83811115620010a0576000848401525b50505050565b600082601f830112620010b857600080fd5b81516001600160401b0380821115620010d557620010d56200105d565b604051601f8301601f19908116603f011681019082821181831017156200110057620011006200105d565b816040528381528660208588010111156200111a57600080fd5b6200112d84602083016020890162001073565b9695505050505050565b600080600080600060a086880312156200115057600080fd5b85516001600160a01b03811681146200116857600080fd5b6020870151604088015191965094506001600160401b03808211156200118d57600080fd5b6200119b89838a01620010a6565b94506060880151915080821115620011b257600080fd5b620011c089838a01620010a6565b93506080880151915080821115620011d757600080fd5b50620011e688828901620010a6565b9150509295509295909350565b60006000198214156200121657634e487b7160e01b600052601160045260246000fd5b5060010190565b634e487b7160e01b600052603260045260246000fd5b634e487b7160e01b600052602160045260246000fd5b600081518084526200126381602086016020860162001073565b601f01601f19169290920160200192915050565b60006060808301818452808751808352608092508286019150828160051b8701016020808b0160005b848110156200134c57898403607f19018652815180516001600160a01b03168552838101518986019060038110620012e857634e487b7160e01b600052602160045260246000fd5b868601526040918201519186018a905281519081905290840190600090898701905b80831015620013365783516001600160e01b03191682529286019260019290920191908601906200130a565b50978501979550505090820190600101620012a0565b50506001600160a01b038a1690880152868103604088015262001370818962001249565b9a9950505050505050505050565b600082516200139281846020870162001073565b9190910192915050565b600181811c90821680620013b157607f821691505b60208210811415620013d357634e487b7160e01b600052602260045260246000fd5b50919050565b611e2380620013e96000396000f3fe6080604052600436106100cb5760003560e01c80638ab5150a11610074578063adfca15e1161004e578063adfca15e146102a3578063cdffacc6146102d0578063f2fde38b14610329576100d2565b80638ab5150a146102595780638da5cb5b1461026e5780639142376514610283576100d2565b806352ef6b2c116100a557806352ef6b2c1461020057806379ba5097146102225780637a0ed62714610237576100d2565b806301ffc9a7146101435780631f931c1c146101b15780632c408059146101d3576100d2565b366100d257005b60006100dc610349565b90506001600160a01b0381163b61011f576040517f87c9fc3400000000000000000000000000000000000000000000000000000000815260040160405180910390fd5b3660008037600080366000845af43d6000803e80801561013e573d6000f35b3d6000fd5b34801561014f57600080fd5b5061019c61015e3660046117c7565b6001600160e01b03191660009081527ffc606c433378e3a7e0a6a531deac289b66caa1b4aa8554fd4ab2c6f1570f92d8602052604090205460ff1690565b60405190151581526020015b60405180910390f35b3480156101bd57600080fd5b506101d16101cc366004611849565b61035e565b005b3480156101df57600080fd5b506101e86103e8565b6040516001600160a01b0390911681526020016101a8565b34801561020c57600080fd5b5061021561041b565b6040516101a891906118fb565b34801561022e57600080fd5b506101d16105f8565b34801561024357600080fd5b5061024c610654565b6040516101a8919061198d565b34801561026557600080fd5b506101e8610ab6565b34801561027a57600080fd5b506101e8610ac0565b34801561028f57600080fd5b506101d161029e366004611a0a565b610aca565b3480156102af57600080fd5b506102c36102be366004611a0a565b610b50565b6040516101a89190611a25565b3480156102dc57600080fd5b506101e86102eb3660046117c7565b6001600160e01b03191660009081527f177481ac65e4292921c69f62d1cc7f57541261e5d61c8175cf4e36a01c9bfc93602052604090205460601c90565b34801561033557600080fd5b506101d1610344366004611a0a565b610cd6565b6000610353610dcc565b905090565b3b151590565b610366610e3f565b6001600160a01b0316336001600160a01b03161461039757604051632f7a8ee160e01b815260040160405180910390fd5b6103e16103a48587611afb565b8484848080601f016020809104026020016040519081016040528093929190818152602001838380828437600092019190915250610e7292505050565b5050505050565b60006103537f177481ac65e4292921c69f62d1cc7f57541261e5d61c8175cf4e36a01c9bfc96546001600160a01b031690565b7f177481ac65e4292921c69f62d1cc7f57541261e5d61c8175cf4e36a01c9bfc94546060907f177481ac65e4292921c69f62d1cc7f57541261e5d61c8175cf4e36a01c9bfc939061ffff1667ffffffffffffffff81111561047e5761047e611a67565b6040519080825280602002602001820160405280156104a7578160200160208202803683370190505b50915060008060005b600184015461ffff168210156105f0576000818152600285016020526040812054905b60088110156105db57836104e681611c45565b600188015490955061ffff168511159050610500576105db565b600581901b82901b6001600160e01b0319811660009081526020889052604081205460601c90805b8881101561057e578a818151811061054257610542611c60565b60200260200101516001600160a01b0316836001600160a01b0316141561056c576001915061057e565b8061057681611c45565b915050610528565b50801561058d575050506105c9565b818a89815181106105a0576105a0611c60565b6001600160a01b0390921660209283029190910190910152876105c281611c45565b9850505050505b806105d381611c45565b9150506104d3565b505080806105e890611c45565b9150506104b0565b505082525090565b61060061106f565b6001600160a01b0316336001600160a01b03161461064a576040517fefd1052d00000000000000000000000000000000000000000000000000000000815260040160405180910390fd5b610652611097565b565b7f177481ac65e4292921c69f62d1cc7f57541261e5d61c8175cf4e36a01c9bfc94546060907f177481ac65e4292921c69f62d1cc7f57541261e5d61c8175cf4e36a01c9bfc939061ffff1667ffffffffffffffff8111156106b7576106b7611a67565b6040519080825280602002602001820160405280156106fd57816020015b6040805180820190915260008152606060208201528152602001906001900390816106d55790505b50600182015490925060009061ffff1667ffffffffffffffff81111561072557610725611a67565b60405190808252806020026020018201604052801561074e578160200160208202803683370190505b50905060008060005b600185015461ffff16821015610a44576000818152600286016020526040812054905b6008811015610a2f578361078d81611c45565b600189015490955061ffff1685111590506107a757610a2f565b600581901b82901b6001600160e01b0319811660009081526020899052604081205460601c90805b888110156108ed57826001600160a01b03168c82815181106107f3576107f3611c60565b6020026020010151600001516001600160a01b031614156108db57838c828151811061082157610821611c60565b6020026020010151602001518b838151811061083f5761083f611c60565b602002602001015160ff168151811061085a5761085a611c60565b60200260200101906001600160e01b03191690816001600160e01b0319168152505060ff8a828151811061089057610890611c60565b602002602001015160ff16106108a557600080fd5b8981815181106108b7576108b7611c60565b6020026020010180518091906108cc90611c76565b60ff16905250600191506108ed565b806108e581611c45565b9150506107cf565b5080156108fc57505050610a1d565b818b898151811061090f5761090f611c60565b60209081029190910101516001600160a01b03909116905260018a015461ffff1667ffffffffffffffff81111561094857610948611a67565b604051908082528060200260200182016040528015610971578160200160208202803683370190505b508b898151811061098457610984611c60565b602002602001015160200181905250828b89815181106109a6576109a6611c60565b6020026020010151602001516000815181106109c4576109c4611c60565b60200260200101906001600160e01b03191690816001600160e01b0319168152505060018989815181106109fa576109fa611c60565b60ff9092166020928302919091019091015287610a1681611c45565b9850505050505b80610a2781611c45565b91505061077a565b50508080610a3c90611c45565b915050610757565b5060005b82811015610aab576000848281518110610a6457610a64611c60565b602002602001015160ff1690506000878381518110610a8557610a85611c60565b602002602001015160200151905081815250508080610aa390611c45565b915050610a48565b508185525050505090565b600061035361106f565b6000610353610e3f565b610ad2610e3f565b6001600160a01b0316336001600160a01b031614610b0357604051632f7a8ee160e01b815260040160405180910390fd5b7f177481ac65e4292921c69f62d1cc7f57541261e5d61c8175cf4e36a01c9bfc96805473ffffffffffffffffffffffffffffffffffffffff19166001600160a01b03831617905550565b50565b7f177481ac65e4292921c69f62d1cc7f57541261e5d61c8175cf4e36a01c9bfc94546060907f177481ac65e4292921c69f62d1cc7f57541261e5d61c8175cf4e36a01c9bfc939061ffff1667ffffffffffffffff811115610bb357610bb3611a67565b604051908082528060200260200182016040528015610bdc578160200160208202803683370190505b50915060008060005b600184015461ffff16821015610ccc576000818152600285016020526040812054905b6008811015610cb75783610c1b81611c45565b600188015490955061ffff168511159050610c3557610cb7565b600581901b82901b6001600160e01b0319811660009081526020889052604090205460601c6001600160a01b038a161415610ca45780888781518110610c7d57610c7d611c60565b6001600160e01b03199092166020928302919091019091015285610ca081611c45565b9650505b5080610caf81611c45565b915050610c08565b50508080610cc490611c45565b915050610be5565b5050825250919050565b610cde610e3f565b6001600160a01b0316336001600160a01b031614610d0f57604051632f7a8ee160e01b815260040160405180910390fd5b610b4d816110de565b7f99574a7094154bb123ae6ae102096f0bf9679b85a5cd1e727aaa0ae5f132e6b190565b7ffc606c433378e3a7e0a6a531deac289b66caa1b4aa8554fd4ab2c6f1570f92d890565b7f1c5e8fa68a2e18767b1f14b74959cf2ccd4e7455f76450fee582330c15ede59d90565b7f177481ac65e4292921c69f62d1cc7f57541261e5d61c8175cf4e36a01c9bfc9390565b7f8a22373512790c48b83a1fe2efdd2888d4a917bcdc24d0adf63e60f67168046090565b600080356001600160e01b03191681527f177481ac65e4292921c69f62d1cc7f57541261e5d61c8175cf4e36a01c9bfc93602052604090205460601c80610e3c57507f177481ac65e4292921c69f62d1cc7f57541261e5d61c8175cf4e36a01c9bfc96546001600160a01b031690565b90565b60007f8a22373512790c48b83a1fe2efdd2888d4a917bcdc24d0adf63e60f6716804605b546001600160a01b0316919050565b7f177481ac65e4292921c69f62d1cc7f57541261e5d61c8175cf4e36a01c9bfc94547f177481ac65e4292921c69f62d1cc7f57541261e5d61c8175cf4e36a01c9bfc939061ffff811690819060009060071615610ee15750600381901c60009081526002840160205260409020545b60005b8751811015610fe3576000888281518110610f0157610f01611c60565b6020026020010151905060008160200151905081604001515160001415610f54576040517feb6c3aeb00000000000000000000000000000000000000000000000000000000815260040160405180910390fd5b6000816002811115610f6857610f68611c96565b1415610f8457610f7a8786868561112c565b9095509350610fd9565b6001816002811115610f9857610f98611c96565b1415610fad57610fa88783611289565b610fd9565b6002816002811115610fc157610fc1611c96565b1415610fd957610fd3878686856113eb565b90955093505b5050600101610ee4565b50828214610fff5760018401805461ffff191661ffff84161790555b600782161561102157600382901c600090815260028501602052604090208190555b7f8faa70878671ccd212d20771b795c50af8fd3ff6cf27f4bde57e5d4de0aeb67387878760405161105493929190611d08565b60405180910390a16110668686611626565b50505050505050565b60007f24aa1f7b31fd188a8d3ecfb06bc55c806040e59b03bd4396283442fce6617890610e63565b6110a033611723565b7f24aa1f7b31fd188a8d3ecfb06bc55c806040e59b03bd4396283442fce6617890805473ffffffffffffffffffffffffffffffffffffffff19169055565b7f24aa1f7b31fd188a8d3ecfb06bc55c806040e59b03bd4396283442fce6617890805473ffffffffffffffffffffffffffffffffffffffff19166001600160a01b038316179055610b4d8181565b805160009081906001600160a01b03163014801590611154575082516001600160a01b03163b155b1561117257604051633ddc5cab60e21b815260040160405180910390fd5b60005b83604001515181101561127c5760008460400151828151811061119a5761119a611c60565b6020908102919091018101516001600160e01b031981166000908152918a9052604090912054909150606081901c156111ff576040517f92474ee200000000000000000000000000000000000000000000000000000000815260040160405180910390fd5b85516001600160e01b0319838116600081815260208d90526040902060609390931b6bffffffffffffffffffffffff19168b1790925560058a901b60e090811692831c91831c1999909916179781141561126d57600389901c600090815260028b0160205260408120989098555b50505060019586019501611175565b5093959294509192505050565b80516001600160a01b03163b6112b257604051633ddc5cab60e21b815260040160405180910390fd5b60005b8160400151518110156113e6576000826040015182815181106112da576112da611c60565b6020908102919091018101516001600160e01b03198116600090815291869052604090912054909150606081901c80611326576040516337e25a9760e11b815260040160405180910390fd5b6001600160a01b0381163014156113505760405163e983573160e01b815260040160405180910390fd5b84516001600160a01b0382811691161415611397576040517f617557e600000000000000000000000000000000000000000000000000000000815260040160405180910390fd5b5083516001600160e01b031992909216600090815260208690526040902060609290921b6bffffffffffffffffffffffff19166bffffffffffffffffffffffff919091161790556001016112b5565b505050565b805160009081906001600160a01b031615611432576040517feacd242400000000000000000000000000000000000000000000000000000000815260040160405180910390fd5b600385901c6007861660005b8560400151518110156116125760008660400151828151811061146357611463611c60565b6020908102919091018101516001600160e01b031981166000908152918c9052604090912054909150606081901c6114ae576040516337e25a9760e11b815260040160405180910390fd5b606081901c3014156114d35760405163e983573160e01b815260040160405180910390fd5b886114fb57600019909401600081815260028c01602052604090205498509360079350611503565b600019909301925b600584901b89901b6000806001600160e01b03198084169086161461155f576001600160e01b03198316600090815260208f90526040902080546bffffffffffffffffffffffff19166bffffffffffffffffffffffff86161790555b50506001600160e01b03198316600090815260208d90526040812055611fff600383901c1660e0600584901b168782146115c257600082815260028f016020526040902080546001600160e01b031980841c19909116908516831c1790556115e6565b80836001600160e01b031916901c816001600160e01b031960001b901c198d16179b505b8661160157600088815260028f01602052604081208190559b505b50506001909301925061143e915050565b5060039190911b1796939550929350505050565b8051156001600160a01b038316151461166b576040517f26df4ccd00000000000000000000000000000000000000000000000000000000815260040160405180910390fd5b6001600160a01b0382161561171f576001600160a01b03821630146116b2576001600160a01b0382163b6116b257604051633ddc5cab60e21b815260040160405180910390fd5b6000826001600160a01b0316826040516116cc9190611dd1565b600060405180830381855af49150503d8060008114611707576040519150601f19603f3d011682016040523d82523d6000602084013e61170c565b606091505b50509050806113e6573d6000803e3d6000fd5b5050565b7f8a22373512790c48b83a1fe2efdd2888d4a917bcdc24d0adf63e60f67168046080546040516001600160a01b038481169216907f8be0079c531659141344cd1fd0a4f28419497f9722a3daafe3b4186f6b6457e090600090a3805473ffffffffffffffffffffffffffffffffffffffff19166001600160a01b0392909216919091179055565b80356001600160e01b0319811681146117c257600080fd5b919050565b6000602082840312156117d957600080fd5b6117e2826117aa565b9392505050565b80356001600160a01b03811681146117c257600080fd5b60008083601f84011261181257600080fd5b50813567ffffffffffffffff81111561182a57600080fd5b60208301915083602082850101111561184257600080fd5b9250929050565b60008060008060006060868803121561186157600080fd5b853567ffffffffffffffff8082111561187957600080fd5b818801915088601f83011261188d57600080fd5b81358181111561189c57600080fd5b8960208260051b85010111156118b157600080fd5b602083019750809650506118c7602089016117e9565b945060408801359150808211156118dd57600080fd5b506118ea88828901611800565b969995985093965092949392505050565b6020808252825182820181905260009190848201906040850190845b8181101561193c5783516001600160a01b031683529284019291840191600101611917565b50909695505050505050565b600081518084526020808501945080840160005b838110156119825781516001600160e01b0319168752958201959082019060010161195c565b509495945050505050565b60006020808301818452808551808352604092508286019150828160051b87010184880160005b838110156119fc57888303603f19018552815180516001600160a01b031684528701518784018790526119e987850182611948565b95880195935050908601906001016119b4565b509098975050505050505050565b600060208284031215611a1c57600080fd5b6117e2826117e9565b6020808252825182820181905260009190848201906040850190845b8181101561193c5783516001600160e01b03191683529284019291840191600101611a41565b634e487b7160e01b600052604160045260246000fd5b6040516060810167ffffffffffffffff81118282101715611aa057611aa0611a67565b60405290565b604051601f8201601f1916810167ffffffffffffffff81118282101715611acf57611acf611a67565b604052919050565b600067ffffffffffffffff821115611af157611af1611a67565b5060051b60200190565b6000611b0e611b0984611ad7565b611aa6565b83815260208082019190600586811b860136811115611b2c57600080fd5b865b81811015611c2257803567ffffffffffffffff80821115611b4f5760008081fd5b818a01915060608236031215611b655760008081fd5b611b6d611a7d565b611b76836117e9565b81528683013560038110611b8a5760008081fd5b8188015260408381013583811115611ba25760008081fd5b939093019236601f850112611bb957600092508283fd5b83359250611bc9611b0984611ad7565b83815292871b84018801928881019036851115611be65760008081fd5b948901945b84861015611c0b57611bfc866117aa565b82529489019490890190611beb565b918301919091525088525050948301948301611b2e565b5092979650505050505050565b634e487b7160e01b600052601160045260246000fd5b6000600019821415611c5957611c59611c2f565b5060010190565b634e487b7160e01b600052603260045260246000fd5b600060ff821660ff811415611c8d57611c8d611c2f565b60010192915050565b634e487b7160e01b600052602160045260246000fd5b60005b83811015611cc7578181015183820152602001611caf565b83811115611cd6576000848401525b50505050565b60008151808452611cf4816020860160208601611cac565b601f01601f19169290920160200192915050565b6000606080830181845280875180835260808601915060808160051b87010192506020808a016000805b84811015611da157898703607f19018652825180516001600160a01b031688528481015160038110611d7257634e487b7160e01b84526021600452602484fd5b88860152604090810151908801899052611d8e89890182611948565b9750509483019491830191600101611d32565b5050506001600160a01b0389169087015250508381036040850152611dc68186611cdc565b979650505050505050565b60008251611de3818460208701611cac565b919091019291505056fea264697066735822122054f7b4268d3bab8802dca55732aa87aa1cc254a157c1cc8f46c54d8940df512c64736f6c63430008080033",
  "devdoc": {
    "kind": "dev",
    "methods": {
      "diamondCut((address,uint8,bytes4[])[],address,bytes)": {
        "params": {
          "data": "optional initialization function call data",
          "facetCuts": "array of structured Diamond facet update data",
          "target": "optional target of initialization delegatecall"
        }
      },
      "facetAddress(bytes4)": {
        "params": {
          "selector": "function selector to query"
        },
        "returns": {
          "facet": "facet address (zero address if not found)"
        }
      },
      "facetAddresses()": {
        "returns": {
          "addresses": "array of facet addresses"
        }
      },
      "facetFunctionSelectors(address)": {
        "params": {
          "facet": "address of facet to query"
        },
        "returns": {
          "selectors": "array of function selectors"
        }
      },
      "facets()": {
        "returns": {
          "diamondFacets": "array of structured facet data"
        }
      },
      "getFallbackAddress()": {
        "returns": {
          "fallbackAddress": "address of fallback implementation"
        }
      },
      "owner()": {
        "returns": {
          "_0": "conrtact owner"
        }
      },
      "setFallbackAddress(address)": {
        "params": {
          "fallbackAddress": "address of fallback implementation"
        }
      },
      "supportsInterface(bytes4)": {
        "params": {
          "interfaceId": "interface id"
        },
        "returns": {
          "_0": "bool whether interface is supported"
        }
      },
      "transferOwnership(address)": {
        "params": {
          "account": "address of new owner"
        }
      }
    },
    "version": 1
  },
  "userdoc": {
    "kind": "user",
    "methods": {
      "acceptOwnership()": {
        "notice": "accept transfer of contract ownership"
      },
      "diamondCut((address,uint8,bytes4[])[],address,bytes)": {
        "notice": "update diamond facets and optionally execute arbitrary initialization function"
      },
      "facetAddress(bytes4)": {
        "notice": "get the address of the facet associated with given selector"
      },
      "facetAddresses()": {
        "notice": "get addresses of all facets used by diamond"
      },
      "facetFunctionSelectors(address)": {
        "notice": "get all selectors for given facet address"
      },
      "facets()": {
        "notice": "get all facets and their selectors"
      },
      "getFallbackAddress()": {
        "notice": "query the address of the fallback implementation"
      },
      "nomineeOwner()": {
        "notice": "get the nominated owner who has permission to call acceptOwnership"
      },
      "owner()": {
        "notice": "get the ERC173 contract owner"
      },
      "setFallbackAddress(address)": {
        "notice": "set the address of the fallback implementation"
      },
      "supportsInterface(bytes4)": {
        "notice": "query whether contract has registered support for given interface"
      },
      "transferOwnership(address)": {
        "notice": "transfer contract ownership to new account"
      }
    },
    "version": 1
  },
  "storageLayout": {
    "storage": [],
    "types": null
  }
}