{
  "address": "0x02706eEF71284C7aE7404cc63dA56fB18F85bbC8",
  "abi": [
    {
      "inputs": [
        {
          "internalType": "address",
          "name": "diamond",
          "type": "address"
        }
      ],
      "stateMutability": "nonpayable",
      "type": "constructor"
    },
    {
      "inputs": [],
      "name": "AddressUtils__NotContract",
      "type": "error"
    },
    {
      "inputs": [],
      "name": "ERC165Base__InvalidInterfaceId",
      "type": "error"
    },
    {
      "inputs": [],
      "name": "ERC721Base__BalanceQueryZeroAddress",
      "type": "error"
    },
    {
      "inputs": [],
      "name": "ERC721Base__ERC721ReceiverNotImplemented",
      "type": "error"
    },
    {
      "inputs": [],
      "name": "ERC721Base__InvalidOwner",
      "type": "error"
    },
    {
      "inputs": [],
      "name": "ERC721Base__MintToZeroAddress",
      "type": "error"
    },
    {
      "inputs": [],
      "name": "ERC721Base__NonExistentToken",
      "type": "error"
    },
    {
      "inputs": [],
      "name": "ERC721Base__NotOwnerOrApproved",
      "type": "error"
    },
    {
      "inputs": [],
      "name": "ERC721Base__NotTokenOwner",
      "type": "error"
    },
    {
      "inputs": [],
      "name": "ERC721Base__SelfApproval",
      "type": "error"
    },
    {
      "inputs": [],
      "name": "ERC721Base__TokenAlreadyMinted",
      "type": "error"
    },
    {
      "inputs": [],
      "name": "ERC721Base__TransferToZeroAddress",
      "type": "error"
    },
    {
      "inputs": [],
      "name": "ERC721Metadata__NonExistentToken",
      "type": "error"
    },
    {
      "inputs": [],
      "name": "EnumerableMap__IndexOutOfBounds",
      "type": "error"
    },
    {
      "inputs": [],
      "name": "EnumerableMap__NonExistentKey",
      "type": "error"
    },
    {
      "inputs": [],
      "name": "EnumerableSet__IndexOutOfBounds",
      "type": "error"
    },
    {
      "inputs": [],
      "name": "PRBMathSD59x18__AbsInputTooSmall",
      "type": "error"
    },
    {
      "inputs": [],
      "name": "PRBMathSD59x18__MulInputTooSmall",
      "type": "error"
    },
    {
      "inputs": [
        {
          "internalType": "uint256",
          "name": "rAbs",
          "type": "uint256"
        }
      ],
      "name": "PRBMathSD59x18__MulOverflow",
      "type": "error"
    },
    {
      "inputs": [
        {
          "internalType": "uint256",
          "name": "rAbs",
          "type": "uint256"
        }
      ],
      "name": "PRBMathSD59x18__PowuOverflow",
      "type": "error"
    },
    {
      "inputs": [
        {
          "internalType": "uint256",
          "name": "prod1",
          "type": "uint256"
        }
      ],
      "name": "PRBMath__MulDivFixedPointOverflow",
      "type": "error"
    },
    {
      "inputs": [
        {
          "internalType": "uint256",
          "name": "prod1",
          "type": "uint256"
        },
        {
          "internalType": "uint256",
          "name": "denominator",
          "type": "uint256"
        }
      ],
      "name": "PRBMath__MulDivOverflow",
      "type": "error"
    },
    {
      "inputs": [],
      "name": "SolidStateERC721__PayableApproveNotSupported",
      "type": "error"
    },
    {
      "inputs": [],
      "name": "SolidStateERC721__PayableTransferNotSupported",
      "type": "error"
    },
    {
      "anonymous": false,
      "inputs": [
        {
          "indexed": true,
          "internalType": "address",
          "name": "owner",
          "type": "address"
        },
        {
          "indexed": true,
          "internalType": "address",
          "name": "operator",
          "type": "address"
        },
        {
          "indexed": true,
          "internalType": "uint256",
          "name": "tokenId",
          "type": "uint256"
        }
      ],
      "name": "Approval",
      "type": "event"
    },
    {
      "anonymous": false,
      "inputs": [
        {
          "indexed": true,
          "internalType": "address",
          "name": "owner",
          "type": "address"
        },
        {
          "indexed": true,
          "internalType": "address",
          "name": "operator",
          "type": "address"
        },
        {
          "indexed": false,
          "internalType": "bool",
          "name": "approved",
          "type": "bool"
        }
      ],
      "name": "ApprovalForAll",
      "type": "event"
    },
    {
      "anonymous": false,
      "inputs": [
        {
          "indexed": true,
          "internalType": "uint256",
          "name": "tokenId",
          "type": "uint256"
        },
        {
          "indexed": true,
          "internalType": "uint256",
          "name": "salePrice",
          "type": "uint256"
        }
      ],
      "name": "Bought",
      "type": "event"
    },
    {
      "anonymous": false,
      "inputs": [
        {
          "indexed": true,
          "internalType": "address",
          "name": "account",
          "type": "address"
        },
        {
          "indexed": true,
          "internalType": "uint256",
          "name": "amount",
          "type": "uint256"
        }
      ],
      "name": "FRClaimed",
      "type": "event"
    },
    {
      "anonymous": false,
      "inputs": [
        {
          "indexed": true,
          "internalType": "uint256",
          "name": "tokenId",
          "type": "uint256"
        },
        {
          "indexed": true,
          "internalType": "uint256",
          "name": "soldPrice",
          "type": "uint256"
        },
        {
          "indexed": true,
          "internalType": "uint256",
          "name": "allocatedFR",
          "type": "uint256"
        }
      ],
      "name": "FRDistributed",
      "type": "event"
    },
    {
      "anonymous": false,
      "inputs": [
        {
          "indexed": true,
          "internalType": "uint256",
          "name": "tokenId",
          "type": "uint256"
        },
        {
          "indexed": true,
          "internalType": "uint256",
          "name": "salePrice",
          "type": "uint256"
        }
      ],
      "name": "Listed",
      "type": "event"
    },
    {
      "anonymous": false,
      "inputs": [
        {
          "indexed": true,
          "internalType": "address",
          "name": "account",
          "type": "address"
        },
        {
          "indexed": true,
          "internalType": "uint256",
          "name": "amount",
          "type": "uint256"
        }
      ],
      "name": "ORClaimed",
      "type": "event"
    },
    {
      "anonymous": false,
      "inputs": [
        {
          "indexed": true,
          "internalType": "uint256",
          "name": "tokenId",
          "type": "uint256"
        },
        {
          "indexed": true,
          "internalType": "uint256",
          "name": "soldPrice",
          "type": "uint256"
        },
        {
          "indexed": true,
          "internalType": "uint256",
          "name": "allocatedFR",
          "type": "uint256"
        }
      ],
      "name": "ORDistributed",
      "type": "event"
    },
    {
      "anonymous": false,
      "inputs": [
        {
          "indexed": true,
          "internalType": "address",
          "name": "from",
          "type": "address"
        },
        {
          "indexed": true,
          "internalType": "address",
          "name": "to",
          "type": "address"
        },
        {
          "indexed": true,
          "internalType": "uint256",
          "name": "tokenId",
          "type": "uint256"
        }
      ],
      "name": "OTokenTransfer",
      "type": "event"
    },
    {
      "anonymous": false,
      "inputs": [
        {
          "indexed": true,
          "internalType": "uint256",
          "name": "tokenId",
          "type": "uint256"
        }
      ],
      "name": "OTokensDistributed",
      "type": "event"
    },
    {
      "anonymous": false,
      "inputs": [
        {
          "indexed": true,
          "internalType": "address",
          "name": "from",
          "type": "address"
        },
        {
          "indexed": true,
          "internalType": "address",
          "name": "to",
          "type": "address"
        },
        {
          "indexed": true,
          "internalType": "uint256",
          "name": "tokenId",
          "type": "uint256"
        }
      ],
      "name": "Transfer",
      "type": "event"
    },
    {
      "anonymous": false,
      "inputs": [
        {
          "indexed": true,
          "internalType": "uint256",
          "name": "tokenId",
          "type": "uint256"
        }
      ],
      "name": "Unlisted",
      "type": "event"
    },
    {
      "inputs": [
        {
          "internalType": "address",
          "name": "operator",
          "type": "address"
        },
        {
          "internalType": "uint256",
          "name": "tokenId",
          "type": "uint256"
        }
      ],
      "name": "approve",
      "outputs": [],
      "stateMutability": "payable",
      "type": "function"
    },
    {
      "inputs": [
        {
          "internalType": "address",
          "name": "account",
          "type": "address"
        }
      ],
      "name": "balanceOf",
      "outputs": [
        {
          "internalType": "uint256",
          "name": "",
          "type": "uint256"
        }
      ],
      "stateMutability": "view",
      "type": "function"
    },
    {
      "inputs": [
        {
          "internalType": "uint256",
          "name": "tokenId",
          "type": "uint256"
        },
        {
          "internalType": "address",
          "name": "account",
          "type": "address"
        }
      ],
      "name": "balanceOfOTokens",
      "outputs": [
        {
          "internalType": "uint256",
          "name": "",
          "type": "uint256"
        }
      ],
      "stateMutability": "view",
      "type": "function"
    },
    {
      "inputs": [
        {
          "internalType": "uint256",
          "name": "tokenId",
          "type": "uint256"
        }
      ],
      "name": "buy",
      "outputs": [],
      "stateMutability": "payable",
      "type": "function"
    },
    {
      "inputs": [
        {
          "internalType": "address",
          "name": "account",
          "type": "address"
        }
      ],
      "name": "getAllottedFR",
      "outputs": [
        {
          "internalType": "uint256",
          "name": "",
          "type": "uint256"
        }
      ],
      "stateMutability": "view",
      "type": "function"
    },
    {
      "inputs": [
        {
          "internalType": "address",
          "name": "account",
          "type": "address"
        }
      ],
      "name": "getAllottedOR",
      "outputs": [
        {
          "internalType": "uint256",
          "name": "",
          "type": "uint256"
        }
      ],
      "stateMutability": "view",
      "type": "function"
    },
    {
      "inputs": [
        {
          "internalType": "uint256",
          "name": "tokenId",
          "type": "uint256"
        }
      ],
      "name": "getApproved",
      "outputs": [
        {
          "internalType": "address",
          "name": "",
          "type": "address"
        }
      ],
      "stateMutability": "view",
      "type": "function"
    },
    {
      "inputs": [
        {
          "internalType": "uint256",
          "name": "tokenId",
          "type": "uint256"
        }
      ],
      "name": "getFRInfo",
      "outputs": [
        {
          "internalType": "uint8",
          "name": "numGenerations",
          "type": "uint8"
        },
        {
          "internalType": "uint256",
          "name": "percentOfProfit",
          "type": "uint256"
        },
        {
          "internalType": "uint256",
          "name": "successiveRatio",
          "type": "uint256"
        },
        {
          "internalType": "uint256",
          "name": "lastSoldPrice",
          "type": "uint256"
        },
        {
          "internalType": "uint256",
          "name": "ownerAmount",
          "type": "uint256"
        },
        {
          "internalType": "address[]",
          "name": "addressesInFR",
          "type": "address[]"
        }
      ],
      "stateMutability": "view",
      "type": "function"
    },
    {
      "inputs": [
        {
          "internalType": "uint256",
          "name": "tokenId",
          "type": "uint256"
        }
      ],
      "name": "getLicenseName",
      "outputs": [
        {
          "internalType": "string",
          "name": "",
          "type": "string"
        }
      ],
      "stateMutability": "view",
      "type": "function"
    },
    {
      "inputs": [
        {
          "internalType": "uint256",
          "name": "tokenId",
          "type": "uint256"
        }
      ],
      "name": "getLicenseURI",
      "outputs": [
        {
          "internalType": "string",
          "name": "",
          "type": "string"
        }
      ],
      "stateMutability": "view",
      "type": "function"
    },
    {
      "inputs": [
        {
          "internalType": "uint256",
          "name": "tokenId",
          "type": "uint256"
        }
      ],
      "name": "getListInfo",
      "outputs": [
        {
          "internalType": "uint256",
          "name": "",
          "type": "uint256"
        },
        {
          "internalType": "address",
          "name": "",
          "type": "address"
        },
        {
          "internalType": "bool",
          "name": "",
          "type": "bool"
        }
      ],
      "stateMutability": "view",
      "type": "function"
    },
    {
      "inputs": [],
      "name": "getManagerInfo",
      "outputs": [
        {
          "internalType": "address",
          "name": "untradingManager",
          "type": "address"
        },
        {
          "internalType": "uint256",
          "name": "managerCut",
          "type": "uint256"
        }
      ],
      "stateMutability": "view",
      "type": "function"
    },
    {
      "inputs": [
        {
          "internalType": "uint256",
          "name": "tokenId",
          "type": "uint256"
        }
      ],
      "name": "getORInfo",
      "outputs": [
        {
          "internalType": "uint256",
          "name": "ORatio",
          "type": "uint256"
        },
        {
          "internalType": "uint256",
          "name": "rewardRatio",
          "type": "uint256"
        },
        {
          "internalType": "address[]",
          "name": "holders",
          "type": "address[]"
        }
      ],
      "stateMutability": "view",
      "type": "function"
    },
    {
      "inputs": [
        {
          "internalType": "uint256",
          "name": "tokenId",
          "type": "uint256"
        }
      ],
      "name": "getWrappedInfo",
      "outputs": [
        {
          "internalType": "address",
          "name": "",
          "type": "address"
        },
        {
          "internalType": "uint256",
          "name": "",
          "type": "uint256"
        },
        {
          "internalType": "bool",
          "name": "",
          "type": "bool"
        }
      ],
      "stateMutability": "view",
      "type": "function"
    },
    {
      "inputs": [
        {
          "internalType": "address",
          "name": "account",
          "type": "address"
        },
        {
          "internalType": "address",
          "name": "operator",
          "type": "address"
        }
      ],
      "name": "isApprovedForAll",
      "outputs": [
        {
          "internalType": "bool",
          "name": "",
          "type": "bool"
        }
      ],
      "stateMutability": "view",
      "type": "function"
    },
    {
      "inputs": [
        {
          "internalType": "uint256",
          "name": "tokenId",
          "type": "uint256"
        },
        {
          "internalType": "uint256",
          "name": "salePrice",
          "type": "uint256"
        }
      ],
      "name": "list",
      "outputs": [],
      "stateMutability": "nonpayable",
      "type": "function"
    },
    {
      "inputs": [
        {
          "internalType": "address",
          "name": "recipient",
          "type": "address"
        },
        {
          "internalType": "uint8",
          "name": "numGenerations",
          "type": "uint8"
        },
        {
          "internalType": "uint256",
          "name": "rewardRatio",
          "type": "uint256"
        },
        {
          "internalType": "uint256",
          "name": "ORatio",
          "type": "uint256"
        },
        {
          "internalType": "uint8",
          "name": "license",
          "type": "uint8"
        },
        {
          "internalType": "string",
          "name": "tokenURI",
          "type": "string"
        }
      ],
      "name": "mint",
      "outputs": [
        {
          "internalType": "uint256",
          "name": "tokenId",
          "type": "uint256"
        }
      ],
      "stateMutability": "nonpayable",
      "type": "function"
    },
    {
      "inputs": [],
      "name": "name",
      "outputs": [
        {
          "internalType": "string",
          "name": "",
          "type": "string"
        }
      ],
      "stateMutability": "view",
      "type": "function"
    },
    {
      "inputs": [
        {
          "internalType": "address",
          "name": "",
          "type": "address"
        },
        {
          "internalType": "address",
          "name": "",
          "type": "address"
        },
        {
          "internalType": "uint256",
          "name": "",
          "type": "uint256"
        },
        {
          "internalType": "bytes",
          "name": "",
          "type": "bytes"
        }
      ],
      "name": "onERC721Received",
      "outputs": [
        {
          "internalType": "bytes4",
          "name": "",
          "type": "bytes4"
        }
      ],
      "stateMutability": "pure",
      "type": "function"
    },
    {
      "inputs": [
        {
          "internalType": "uint256",
          "name": "tokenId",
          "type": "uint256"
        }
      ],
      "name": "ownerOf",
      "outputs": [
        {
          "internalType": "address",
          "name": "",
          "type": "address"
        }
      ],
      "stateMutability": "view",
      "type": "function"
    },
    {
      "inputs": [
        {
          "internalType": "address payable",
          "name": "account",
          "type": "address"
        }
      ],
      "name": "releaseFR",
      "outputs": [],
      "stateMutability": "nonpayable",
      "type": "function"
    },
    {
      "inputs": [
        {
          "internalType": "address payable",
          "name": "account",
          "type": "address"
        }
      ],
      "name": "releaseOR",
      "outputs": [],
      "stateMutability": "nonpayable",
      "type": "function"
    },
    {
      "inputs": [
        {
          "internalType": "address",
          "name": "from",
          "type": "address"
        },
        {
          "internalType": "address",
          "name": "to",
          "type": "address"
        },
        {
          "internalType": "uint256",
          "name": "tokenId",
          "type": "uint256"
        }
      ],
      "name": "safeTransferFrom",
      "outputs": [],
      "stateMutability": "payable",
      "type": "function"
    },
    {
      "inputs": [
        {
          "internalType": "address",
          "name": "from",
          "type": "address"
        },
        {
          "internalType": "address",
          "name": "to",
          "type": "address"
        },
        {
          "internalType": "uint256",
          "name": "tokenId",
          "type": "uint256"
        },
        {
          "internalType": "bytes",
          "name": "data",
          "type": "bytes"
        }
      ],
      "name": "safeTransferFrom",
      "outputs": [],
      "stateMutability": "payable",
      "type": "function"
    },
    {
      "inputs": [
        {
          "internalType": "address",
          "name": "operator",
          "type": "address"
        },
        {
          "internalType": "bool",
          "name": "status",
          "type": "bool"
        }
      ],
      "name": "setApprovalForAll",
      "outputs": [],
      "stateMutability": "nonpayable",
      "type": "function"
    },
    {
      "inputs": [
        {
          "internalType": "uint256",
          "name": "newManagerCut",
          "type": "uint256"
        }
      ],
      "name": "setManagerCut",
      "outputs": [],
      "stateMutability": "nonpayable",
      "type": "function"
    },
    {
      "inputs": [
        {
          "internalType": "bytes4",
          "name": "interfaceId",
          "type": "bytes4"
        }
      ],
      "name": "supportsInterface",
      "outputs": [
        {
          "internalType": "bool",
          "name": "",
          "type": "bool"
        }
      ],
      "stateMutability": "view",
      "type": "function"
    },
    {
      "inputs": [],
      "name": "symbol",
      "outputs": [
        {
          "internalType": "string",
          "name": "",
          "type": "string"
        }
      ],
      "stateMutability": "view",
      "type": "function"
    },
    {
      "inputs": [
        {
          "internalType": "uint256",
          "name": "index",
          "type": "uint256"
        }
      ],
      "name": "tokenByIndex",
      "outputs": [
        {
          "internalType": "uint256",
          "name": "",
          "type": "uint256"
        }
      ],
      "stateMutability": "view",
      "type": "function"
    },
    {
      "inputs": [
        {
          "internalType": "address",
          "name": "owner",
          "type": "address"
        },
        {
          "internalType": "uint256",
          "name": "index",
          "type": "uint256"
        }
      ],
      "name": "tokenOfOwnerByIndex",
      "outputs": [
        {
          "internalType": "uint256",
          "name": "",
          "type": "uint256"
        }
      ],
      "stateMutability": "view",
      "type": "function"
    },
    {
      "inputs": [
        {
          "internalType": "uint256",
          "name": "tokenId",
          "type": "uint256"
        }
      ],
      "name": "tokenURI",
      "outputs": [
        {
          "internalType": "string",
          "name": "",
          "type": "string"
        }
      ],
      "stateMutability": "view",
      "type": "function"
    },
    {
      "inputs": [],
      "name": "totalSupply",
      "outputs": [
        {
          "internalType": "uint256",
          "name": "",
          "type": "uint256"
        }
      ],
      "stateMutability": "view",
      "type": "function"
    },
    {
      "inputs": [
        {
          "internalType": "address",
          "name": "from",
          "type": "address"
        },
        {
          "internalType": "address",
          "name": "to",
          "type": "address"
        },
        {
          "internalType": "uint256",
          "name": "tokenId",
          "type": "uint256"
        }
      ],
      "name": "transferFrom",
      "outputs": [],
      "stateMutability": "payable",
      "type": "function"
    },
    {
      "inputs": [
        {
          "internalType": "uint256",
          "name": "tokenId",
          "type": "uint256"
        },
        {
          "internalType": "address",
          "name": "recipient",
          "type": "address"
        },
        {
          "internalType": "uint256",
          "name": "amount",
          "type": "uint256"
        }
      ],
      "name": "transferOTokens",
      "outputs": [],
      "stateMutability": "nonpayable",
      "type": "function"
    },
    {
      "inputs": [
        {
          "internalType": "uint256",
          "name": "tokenId",
          "type": "uint256"
        }
      ],
      "name": "unlist",
      "outputs": [],
      "stateMutability": "nonpayable",
      "type": "function"
    },
    {
      "inputs": [
        {
          "internalType": "uint256",
          "name": "tokenId",
          "type": "uint256"
        },
        {
          "internalType": "uint8",
          "name": "sigV",
          "type": "uint8"
        },
        {
          "internalType": "bytes32",
          "name": "sigR",
          "type": "bytes32"
        },
        {
          "internalType": "bytes32",
          "name": "sigS",
          "type": "bytes32"
        }
      ],
      "name": "unwrap",
      "outputs": [],
      "stateMutability": "nonpayable",
      "type": "function"
    },
    {
      "inputs": [
        {
          "internalType": "address",
          "name": "token",
          "type": "address"
        },
        {
          "internalType": "uint256",
          "name": "tokenId",
          "type": "uint256"
        },
        {
          "internalType": "uint8",
          "name": "numGenerations",
          "type": "uint8"
        },
        {
          "internalType": "uint256",
          "name": "rewardRatio",
          "type": "uint256"
        },
        {
          "internalType": "uint256",
          "name": "ORatio",
          "type": "uint256"
        },
        {
          "internalType": "uint8",
          "name": "license",
          "type": "uint8"
        },
        {
          "internalType": "string",
          "name": "tokenURI",
          "type": "string"
        }
      ],
      "name": "wrap",
      "outputs": [],
      "stateMutability": "nonpayable",
      "type": "function"
    }
  ],
  "transactionHash": "0x10b4a9bfeabc7a8013ff9e3711688fc1a015e3496fa26218d1e33dc9f7f3d3fb",
  "args": [
    "0x79eA5D780Cd5C32489B557db5029EcD8F9041Cf0"
  ],
  "numDeployments": 1,
  "solcInputHash": "0b0aa99fcf52f26cadfdf2681ca5c806",
  "bytecode": "0x60a06040523480156200001157600080fd5b50604051620059d1380380620059d183398101604081905262000034916200010c565b604080517fd87cd6ef79d4e2b95e15ce8abf732db51ec771f1ca2edccf22a46c729ac5647260208201527ff5bf68510d139e3f5f645bb40818cb10b813fa0f5812475e018a7acc89a1fb64918101919091527fc89efdaa54c0f20c7adf612882df0950f5a951637e0307cdcb4c672f298b8bc660608201524660808201526001600160a01b03821660a08201527f48cdc51538d5c18ef784aab525d9823a2119e55be5a1288a7a9c675f0f202bdd60c082015260e00160408051601f198184030181529190528051602090910120608052506200013e565b6000602082840312156200011f57600080fd5b81516001600160a01b03811681146200013757600080fd5b9392505050565b6080516158776200015a60003960006113a701526158776000f3fe60806040526004361061026a5760003560e01c80636440263411610153578063bf5a4dd3116100cb578063e985e9c51161007f578063e9d8051811610064578063e9d80518146107a8578063eef202d01461080e578063efc7377a1461089e57600080fd5b8063e985e9c514610768578063e9c927ce1461078857600080fd5b8063cd19f95f116100b0578063cd19f95f146106a2578063d96a094a14610723578063e428ce431461073657600080fd5b8063bf5a4dd314610662578063c87b56dd1461068257600080fd5b806395d89b4111610122578063b598590511610107578063b5985905146105da578063b88d4fde1461062f578063bb0b79891461064257600080fd5b806395d89b41146105a5578063a22cb465146105ba57600080fd5b806364402634146105165780636876664f146105365780636be3da261461055657806370a082311461058557600080fd5b806332dea195116101e657806342842e0e116101b557806350fd73671161019a57806350fd7367146104b65780635da6916a146104d65780636352211e146104f657600080fd5b806342842e0e146104835780634f6ccce71461049657600080fd5b806332dea195146103ce57806338e0e89b146103ee5780633b21b215146104435780633b2af2721461046357600080fd5b8063150b7a021161023d57806323b872dd1161022257806323b872dd1461037b5780632f745c591461038e57806330bafc65146103ae57600080fd5b8063150b7a021461031357806318160ddd1461035857600080fd5b806301ffc9a71461026f57806306fdde03146102a4578063081812fc146102c6578063095ea7b3146102fe575b600080fd5b34801561027b57600080fd5b5061028f61028a366004614ee7565b61092d565b60405190151581526020015b60405180910390f35b3480156102b057600080fd5b506102b9610970565b60405161029b9190614f5c565b3480156102d257600080fd5b506102e66102e1366004614f6f565b61097f565b6040516001600160a01b03909116815260200161029b565b61031161030c366004614f9d565b61098a565b005b34801561031f57600080fd5b5061033f61032e366004614fc9565b630a85bd0160e11b95945050505050565b6040516001600160e01b0319909116815260200161029b565b34801561036457600080fd5b5061036d610998565b60405190815260200161029b565b610311610389366004615068565b6109a2565b34801561039a57600080fd5b5061036d6103a9366004614f9d565b6109b2565b3480156103ba57600080fd5b506102b96103c9366004614f6f565b6109c5565b3480156103da57600080fd5b506103116103e93660046150a9565b6109d0565b3480156103fa57600080fd5b5061036d6104093660046150a9565b6001600160a01b031660009081527fb57ad6294d0e41674b9139793b648baaa742e3cad058c7605a8d73c5bbd2e602602052604090205490565b34801561044f57600080fd5b506102b961045e366004614f6f565b610b5b565b34801561046f57600080fd5b5061031161047e3660046150c6565b610b66565b610311610491366004615068565b610eb4565b3480156104a257600080fd5b5061036d6104b1366004614f6f565b610ebf565b3480156104c257600080fd5b506103116104d13660046150ed565b610eca565b3480156104e257600080fd5b506103116104f1366004614f6f565b611004565b34801561050257600080fd5b506102e6610511366004614f6f565b611084565b34801561052257600080fd5b506103116105313660046150a9565b61108f565b34801561054257600080fd5b50610311610551366004615120565b611227565b34801561056257600080fd5b50610576610571366004614f6f565b61167e565b60405161029b9392919061519f565b34801561059157600080fd5b5061036d6105a03660046150a9565b611726565b3480156105b157600080fd5b506102b9611731565b3480156105c657600080fd5b506103116105d53660046151c7565b61173b565b3480156105e657600080fd5b5061036d6105f53660046150a9565b6001600160a01b031660009081527f9e2510b4d59b813edef0dae2e1b6c87ee280a0f5524ef39bc6fe83ba371c55cc602052604090205490565b61031161063d366004615291565b611745565b34801561064e57600080fd5b5061031161065d366004615331565b611757565b34801561066e57600080fd5b5061031161067d366004614f6f565b6118da565b34801561068e57600080fd5b506102b961069d366004614f6f565b6119d3565b3480156106ae57600080fd5b506107047f1c5e8fa68a2e18767b1f14b74959cf2ccd4e7455f76450fee582330c15ede59d547f1c5e8fa68a2e18767b1f14b74959cf2ccd4e7455f76450fee582330c15ede59e546001600160a01b0390911691565b604080516001600160a01b03909316835260208301919091520161029b565b610311610731366004614f6f565b6119de565b34801561074257600080fd5b50610756610751366004614f6f565b611bf5565b60405161029b969594939291906153bf565b34801561077457600080fd5b5061028f6107833660046153f3565b611cb6565b34801561079457600080fd5b5061036d6107a3366004615421565b611d05565b3480156107b457600080fd5b5061036d6107c33660046154a4565b60009182527fb57ad6294d0e41674b9139793b648baaa742e3cad058c7605a8d73c5bbd2e601602090815260408084206001600160a01b039390931684526003909201905290205490565b34801561081a57600080fd5b50610877610829366004614f6f565b60009081527f331c87aea42537f4547366b85461b088f2a2915707f2d772a8abe244c71cb96360205260409020805460018201546002909201546001600160a01b039091169260ff90911690565b604080516001600160a01b039094168452602084019290925215159082015260600161029b565b3480156108aa57600080fd5b506109086108b9366004614f6f565b60009081527f9e2510b4d59b813edef0dae2e1b6c87ee280a0f5524ef39bc6fe83ba371c55cb60205260409020805460019091015490916001600160a01b03821691600160a01b900460ff1690565b604080519384526001600160a01b03909216602084015215159082015260600161029b565b6001600160e01b0319811660009081527ffc606c433378e3a7e0a6a531deac289b66caa1b4aa8554fd4ab2c6f1570f92d8602052604081205460ff165b92915050565b606061097a611fa4565b905090565b600061096a82612055565b61099482826120b8565b5050565b600061097a6121f8565b6109ad838383612223565b505050565b60006109be8383612261565b9392505050565b606061096a826122a2565b6001600160a01b03811660009081527f9e2510b4d59b813edef0dae2e1b6c87ee280a0f5524ef39bc6fe83ba371c55cc602052604090205460008051602061582283398151915290610a695760405162461bcd60e51b815260206004820152601160248201527f4e6f204652205061796d656e742064756500000000000000000000000000000060448201526064015b60405180910390fd5b6001600160a01b0382166000818152600983016020526040808220805490839055905190929083908381818185875af1925050503d8060008114610ac9576040519150601f19603f3d011682016040523d82523d6000602084013e610ace565b606091505b5050905080610b1f5760405162461bcd60e51b815260206004820152601460248201527f4661696c656420746f2072656c656173652046520000000000000000000000006044820152606401610a60565b60405182906001600160a01b038616907f5a9202ceea6770814401fd72940be33fb25a4b30d55ca69183766ad7feb3e5ef90600090a350505050565b606061096a826122e3565b7fb57ad6294d0e41674b9139793b648baaa742e3cad058c7605a8d73c5bbd2e6016001600160a01b038316610bdd5760405162461bcd60e51b815260206004820152601c60248201527f7472616e7366657220746f20746865207a65726f2061646472657373000000006044820152606401610a60565b6001600160a01b038316331415610c295760405162461bcd60e51b815260206004820152601060248201526f3a3930b739b332b9103a379039b2b63360811b6044820152606401610a60565b60008211610c795760405162461bcd60e51b815260206004820152601460248201527f7472616e7366657220616d6f756e7420697320300000000000000000000000006044820152606401610a60565b60008481526020828152604080832033845260030190915290205482811015610ce45760405162461bcd60e51b815260206004820152601f60248201527f7472616e7366657220616d6f756e7420657863656564732062616c616e6365006044820152606401610a60565b60008581526020838152604080832033845260030190915280822085840390556001600160a01b03861682529020805484019055610d2283826154df565b610e3a5760005b600086815260208490526040902060020154811015610df1576000868152602084905260409020600201805433919083908110610d6857610d686154f6565b6000918252602090912001546001600160a01b03161415610ddf576000868152602084905260409020600201805486919083908110610da957610da96154f6565b9060005260206000200160006101000a8154816001600160a01b0302191690836001600160a01b03160217905550505050505050565b80610de98161550c565b915050610d29565b5060405162461bcd60e51b815260206004820152600960248201527f4e6f7420466f756e6400000000000000000000000000000000000000000000006044820152606401610a60565b6000858152602083815260408220600201805460018101825590835291200180546001600160a01b0319166001600160a01b0386169081179091558590336001600160a01b03167fcabb64bf74c3918e2dead3a14bbffbb72db126018e7ec25b6477447c50022fac60405160405180910390a45050505050565b6109ad838383612366565b600061096a82612381565b610ed433836123b4565b610f465760405162461bcd60e51b815260206004820152602e60248201527f455243353137333a206c6973742063616c6c6572206973206e6f74206f776e6560448201527f72206e6f7220617070726f7665640000000000000000000000000000000000006064820152608401610a60565b60408051606081018252828152336020808301918252600183850181815260008881527f9e2510b4d59b813edef0dae2e1b6c87ee280a0f5524ef39bc6fe83ba371c55cb9093528583209451855592519301805492511515600160a01b026001600160a81b03199093166001600160a01b039094169390931791909117909155905160008051602061582283398151915291839185917f1ea45e30b31292f9d7c5d37d275b2feca555f13f47dce0fdea2f47e8852ecd7891a3505050565b7f1c5e8fa68a2e18767b1f14b74959cf2ccd4e7455f76450fee582330c15ede59d80546001600160a01b0316331461107e5760405162461bcd60e51b815260206004820152601460248201527f43616c6c6572206e6f74207065726d69747465640000000000000000000000006044820152606401610a60565b60010155565b600061096a82612479565b6001600160a01b03811660009081527fb57ad6294d0e41674b9139793b648baaa742e3cad058c7605a8d73c5bbd2e60260205260409020547fb57ad6294d0e41674b9139793b648baaa742e3cad058c7605a8d73c5bbd2e601906111355760405162461bcd60e51b815260206004820152601160248201527f4e6f204f52205061796d656e74206475650000000000000000000000000000006044820152606401610a60565b6001600160a01b0382166000818152600183016020526040808220805490839055905190929083908381818185875af1925050503d8060008114611195576040519150601f19603f3d011682016040523d82523d6000602084013e61119a565b606091505b50509050806111eb5760405162461bcd60e51b815260206004820152601460248201527f4661696c656420746f2072656c65617365204f520000000000000000000000006044820152606401610a60565b60405182906001600160a01b038616907f3feca93bd3b961b230c096b1ef22dba609260c0c044ff23600c1c76075b50a4690600090a350505050565b6000805160206158228339815191527f331c87aea42537f4547366b85461b088f2a2915707f2d772a8abe244c71cb96361126133876123b4565b6112ad5760405162461bcd60e51b815260206004820152601c60248201527f43616c6c6572206973206e6f74206f776e6572206f6620746f6b656e000000006044820152606401610a60565b60008681526020829052604090206002015460ff1615156001146113135760405162461bcd60e51b815260206004820152601460248201527f546f6b656e206973206e6f7420777261707065640000000000000000000000006044820152606401610a60565b60008681526007830160205260409020600401546001146115dd57604080517fdeee4a5dde01f7c955a7b088c31005e51d9a62b720737e94d1fb9a3511aaa008602082015290810187905260009060600160408051601f198184030181529082905280516020918201207f1901000000000000000000000000000000000000000000000000000000000000918301919091527f0000000000000000000000000000000000000000000000000000000000000000602283015260428201819052915060009060620160408051601f198184030181528282528051602091820120600080855291840180845281905260ff8b169284019290925260608301899052608083018890529092509060019060a0016020604051602081039080840390855afa158015611445573d6000803e3d6000fd5b505050602060405103519050600061147a7f1c5e8fa68a2e18767b1f14b74959cf2ccd4e7455f76450fee582330c15ede59d90565b60008b81527fb57ad6294d0e41674b9139793b648baaa742e3cad058c7605a8d73c5bbd2e6016020819052604082209293509190805b600283015481101561155c576001600160a01b03821660009081526003840160208190526040822054600286018054919391859081106114f2576114f26154f6565b60009182526020808320909101546001600160a01b03168352820192909252604001902054111561154a57826002018181548110611532576115326154f6565b6000918252602090912001546001600160a01b031691505b806115548161550c565b9150506114b0565b5083546001600160a01b03868116911614806115895750806001600160a01b0316856001600160a01b0316145b6115d55760405162461bcd60e51b815260206004820152601a60248201527f496e76616c6964207369676e61747572652070726f76696465640000000000006044820152606401610a60565b505050505050505b600086815260208290526040902080546001909101546001600160a01b0390911690611608886124e8565b60408051632142170760e11b81523060048201523360248201526044810183905290516001600160a01b038416916342842e0e91606480830192600092919082900301818387803b15801561165c57600080fd5b505af1158015611670573d6000803e3d6000fd5b505050505050505050505050565b60008181527fb57ad6294d0e41674b9139793b648baaa742e3cad058c7605a8d73c5bbd2e6016020818152604080842080546001820154600290920180548451818702810187019095528085528796606096909593949391839183018282801561171157602002820191906000526020600020905b81546001600160a01b031681526001909101906020018083116116f3575b50505050509050935093509350509193909250565b600061096a8261258e565b606061097a612610565b6109948282612641565b611751848484846126f6565b50505050565b6001600160a01b0387163014156117d65760405162461bcd60e51b815260206004820152602660248201527f43616e6e6f742077726170206120746f6b656e2066726f6d207468697320636f60448201527f6e747261637400000000000000000000000000000000000000000000000000006064820152608401610a60565b60006117e6338787878787611d05565b604080516060810182526001600160a01b038b811680835260208084018d8152600185870181815260008981527f331c87aea42537f4547366b85461b088f2a2915707f2d772a8abe244c71cb96394859052888120975188546001600160a01b0319169716969096178755915190860155516002909401805460ff1916941515949094179093558351632142170760e11b8152336004820152306024820152604481018d90529351949550919391926342842e0e926064808301939282900301818387803b1580156118b757600080fd5b505af11580156118cb573d6000803e3d6000fd5b50505050505050505050505050565b6118e433826123b4565b6119565760405162461bcd60e51b815260206004820152603060248201527f455243353137333a20756e6c6973742063616c6c6572206973206e6f74206f7760448201527f6e6572206e6f7220617070726f766564000000000000000000000000000000006064820152608401610a60565b60008181527f9e2510b4d59b813edef0dae2e1b6c87ee280a0f5524ef39bc6fe83ba371c55cb602052604080822082815560010180546001600160a81b0319169055516000805160206158228339815191529183917f6318005f6dc5a71d3e4ad5b4d1fe455ef3402d62b64573777af55bb6bfe3daab9190a25050565b606061096a82612735565b60008181527f9e2510b4d59b813edef0dae2e1b6c87ee280a0f5524ef39bc6fe83ba371c55cb6020526040902060019081015460008051602061582283398151915291600160a01b90910460ff16151514611a7b5760405162461bcd60e51b815260206004820152601360248201527f546f6b656e206973206e6f74206c6973746564000000000000000000000000006044820152606401610a60565b60008281526008820160205260409020543414611ada5760405162461bcd60e51b815260206004820181905260248201527f73616c65507269636520616e64206d73672e76616c7565206d69736d617463686044820152606401610a60565b60005b6000838152600783016020526040902060050154811015611b955760008381526007830160205260409020600501805433919083908110611b2057611b206154f6565b6000918252602090912001546001600160a01b03161415611b835760405162461bcd60e51b815260206004820181905260248201527f416c726561647920696e2074686520465220736c6964696e672077696e646f776044820152606401610a60565b80611b8d8161550c565b915050611add565b50600082815260088201602052604090208054600190910154611bc3906001600160a01b0316338584612943565b604051819084907f3ccb2ab6980b218b1dd4974b07365cd90a191e170c611da46262fecc208bd66190600090a3505050565b6000808080806060816000805160206158228339815191526000898152600782016020908152604091829020805460018201546002830154600384015460048501546005909501805488518189028101890190995280895298995060ff9094169792969195909493928391830182828015611c9957602002820191906000526020600020905b81546001600160a01b03168152600190910190602001808311611c7b575b505050505090509650965096509650965096505091939550919395565b6001600160a01b0380831660009081527f3c7bf052874fa81625121783266a03507bd2cd48b16e571c01a04e8dd3fb07aa6020908152604080832093851683529290529081205460ff166109be565b600060058660ff1610158015611d1f575060148660ff1611155b611d915760405162461bcd60e51b815260206004820152602760248201527f6e756d47656e65726174696f6e73206d757374206265206265747765656e203560448201527f20616e64203230000000000000000000000000000000000000000000000000006064820152608401610a60565b66b1a2bc2ec500008510158015611db057506706f05b59d3b200008511155b611e225760405162461bcd60e51b815260206004820152602660248201527f726577617264526174696f206d757374206265206265747765656e203525206160448201527f6e642035302500000000000000000000000000000000000000000000000000006064820152608401610a60565b66b1a2bc2ec500008410158015611e4157506706f05b59d3b200008411155b611eb35760405162461bcd60e51b815260206004820152602160248201527f4f526174696f206d757374206265206265747765656e20352520616e6420353060448201527f25000000000000000000000000000000000000000000000000000000000000006064820152608401610a60565b60006064611efd6716744a6d6e950000611ed860ff8b16670de0b6b3a7640000615527565b611ee291906154df565b611ef760ff8b16670de0b6b3a7640000615527565b90612bf2565b611f07919061555c565b611f12906064615527565b90506000611f32611f2b87670de0b6b3a76400006154df565b8890612c07565b9050611f3e8787612c07565b9550611f48612c13565b7f303ee27bf3d9680bf2887a9a45e01153ae7148eaeedf9fa31e9f0655c88dc3bb54611f76818b898b612c4d565b611f838a828b8587612d76565b611f8d8186612fe5565b611f978187613047565b9998505050505050505050565b60607f99574a7094154bb123ae6ae102096f0bf9679b85a5cd1e727aaa0ae5f132e6b18054611fd290615570565b80601f0160208091040260200160405190810160405280929190818152602001828054611ffe90615570565b801561204b5780601f106120205761010080835404028352916020019161204b565b820191906000526020600020905b81548152906001019060200180831161202e57829003601f168201915b5050505050905090565b600061206082613051565b61207d5760405163c1b843ef60e01b815260040160405180910390fd5b5060009081527f3c7bf052874fa81625121783266a03507bd2cd48b16e571c01a04e8dd3fb07a960205260409020546001600160a01b031690565b6120c382823461307d565b60006120ce82612479565b9050806001600160a01b0316836001600160a01b031614156121035760405163424a22cb60e01b815260040160405180910390fd5b336001600160a01b0382161480159061215f57506001600160a01b03811660009081527f3c7bf052874fa81625121783266a03507bd2cd48b16e571c01a04e8dd3fb07aa6020908152604080832033845290915290205460ff16155b1561217d57604051632f5de44f60e01b815260040160405180910390fd5b60008281527f3c7bf052874fa81625121783266a03507bd2cd48b16e571c01a04e8dd3fb07a9602052604080822080546001600160a01b0319166001600160a01b0387811691821790925591518593918516917f8c5be1e5ebec7d5bd14f71427d1e84f3dd0314c0f7b2291e5b200ac8c7c3b92591a4505050565b600061097a7f3c7bf052874fa81625121783266a03507bd2cd48b16e571c01a04e8dd3fb07a66130b5565b61222f838383346130bf565b61223933826123b4565b61225657604051632f5de44f60e01b815260040160405180910390fd5b6109ad8383836130fc565b6001600160a01b03821660009081527f3c7bf052874fa81625121783266a03507bd2cd48b16e571c01a04e8dd3fb07a8602052604081206109be90836132b2565b60008181527fddd7f088a4b6a284925c81eec4664f2100283a2fe65589ec37f6e381878d593e6020819052604090912054606091906109be9060ff166132be565b606060007fddd7f088a4b6a284925c81eec4664f2100283a2fe65589ec37f6e381878d593e90506040518060600160405280603181526020016157f16031913960008481526020839052604090205461233e9060ff16613453565b60405160200161234f9291906155ab565b604051602081830303815290604052915050919050565b6109ad838383604051806020016040528060008152506126f6565b60006123ad7f3c7bf052874fa81625121783266a03507bd2cd48b16e571c01a04e8dd3fb07a683613585565b5092915050565b60006123bf82613051565b6123dc5760405163c1b843ef60e01b815260040160405180910390fd5b60006123e783612479565b9050806001600160a01b0316846001600160a01b031614806124225750836001600160a01b031661241784612055565b6001600160a01b0316145b8061247157506001600160a01b0380821660009081527f3c7bf052874fa81625121783266a03507bd2cd48b16e571c01a04e8dd3fb07aa602090815260408083209388168352929052205460ff165b949350505050565b6000806124a67f3c7bf052874fa81625121783266a03507bd2cd48b16e571c01a04e8dd3fb07a6846135a1565b90506001600160a01b03811661096a576040517f7e1a7d8b00000000000000000000000000000000000000000000000000000000815260040160405180910390fd5b6124f1816135ad565b60008181527fb57ad6294d0e41674b9139793b648baaa742e3cad058c7605a8d73c5bbd2e6016020819052604082208281556001810183905590917f331c87aea42537f4547366b85461b088f2a2915707f2d772a8abe244c71cb963919061255c6002830182614d8c565b50506000928352602052506040812080546001600160a01b03191681556001810191909155600201805460ff19169055565b60006001600160a01b0382166125d0576040517f810ff97000000000000000000000000000000000000000000000000000000000815260040160405180910390fd5b6001600160a01b03821660009081527f3c7bf052874fa81625121783266a03507bd2cd48b16e571c01a04e8dd3fb07a86020526040902061096a906130b5565b60607f99574a7094154bb123ae6ae102096f0bf9679b85a5cd1e727aaa0ae5f132e6b16001018054611fd290615570565b6001600160a01b03821633141561266b5760405163424a22cb60e01b815260040160405180910390fd5b3360008181527f3c7bf052874fa81625121783266a03507bd2cd48b16e571c01a04e8dd3fb07aa602090815260408083206001600160a01b03871680855290835292819020805460ff191686151590811790915590519081529192917f17307eab39ab6107e8899845ad3d59bd9653f200f220920489ca2b5937696c31910160405180910390a35050565b612702848484346130bf565b61270c33836123b4565b61272957604051632f5de44f60e01b815260040160405180910390fd5b61175184848484613655565b606061274082613051565b612776576040517f2382d38000000000000000000000000000000000000000000000000000000000815260040160405180910390fd5b60008281527f99574a7094154bb123ae6ae102096f0bf9679b85a5cd1e727aaa0ae5f132e6b46020526040812080547f99574a7094154bb123ae6ae102096f0bf9679b85a5cd1e727aaa0ae5f132e6b19291906127d290615570565b80601f01602080910402602001604051908101604052809291908181526020018280546127fe90615570565b801561284b5780601f106128205761010080835404028352916020019161284b565b820191906000526020600020905b81548152906001019060200180831161282e57829003601f168201915b50505050509050600082600201805461286390615570565b80601f016020809104026020016040519081016040528092919081815260200182805461288f90615570565b80156128dc5780601f106128b1576101008083540402835291602001916128dc565b820191906000526020600020905b8154815290600101906020018083116128bf57829003601f168201915b505050505090508051600014156128f557509392505050565b81511561292857808260405160200161290f9291906155ab565b6040516020818303038152906040529350505050919050565b8061293286613453565b60405160200161290f9291906155ab565b826001600160a01b0316846001600160a01b031614156129985760405162461bcd60e51b815260206004820152601060248201526f3a3930b739b332b9103a379039b2b63360811b6044820152606401610a60565b6129a38484846136a2565b6129be84848460405180602001604052806000815250613875565b612a305760405162461bcd60e51b815260206004820152603260248201527f4552433732313a207472616e7366657220746f206e6f6e20455243373231526560448201527f63656976657220696d706c656d656e74657200000000000000000000000000006064820152608401610a60565b60008281527f9e2510b4d59b813edef0dae2e1b6c87ee280a0f5524ef39bc6fe83ba371c55ca602052604081206003015460008051602061582283398151915291908311612ab2576000848152600783016020526040812060038101859055600401805491612a9e8361550c565b9190505550612aad8585613970565b612af4565b612abc8484613b56565b6000858152600784016020526040812060038101869055600401805492935090612ae58361550c565b9190505550612af48585613970565b60008481526008830160205260408120600181018054918390556001600160a81b0319821690556001600160a01b03169081612b3084876154df565b604051600081818185875af1925050503d8060008114612b6c576040519150601f19603f3d011682016040523d82523d6000602084013e612b71565b606091505b5050905080612be85760405162461bcd60e51b815260206004820152602560248201527f455243353137333a204661696c656420746f2073656e642045544820746f206c60448201527f69737465720000000000000000000000000000000000000000000000000000006064820152608401610a60565b5050505050505050565b60006109be83670de0b6b3a764000084613c11565b60006109be8383613cf7565b60017f303ee27bf3d9680bf2887a9a45e01153ae7148eaeedf9fa31e9f0655c88dc3bb8054600090612c469084906155da565b9091555050565b60008481527fb57ad6294d0e41674b9139793b648baaa742e3cad058c7605a8d73c5bbd2e601602081815260408084208681556001810186905581518083019092527f1c5e8fa68a2e18767b1f14b74959cf2ccd4e7455f76450fee582330c15ede59d80546001600160a01b0390811684528916838501529489905291839052919291612ce09160029081019190614dad565b50600181015460008781526020848152604080832085546001600160a01b031684526003019091529020819055612d1f90670de0b6b3a76400006154df565b6000878152602084815260408083206001600160a01b038a16845260030190915280822092909255905187917fe33b4df6ca519196f49edc783e3efade92579814fa72600f8104e5db7439d4a691a2505050505050565b60008360ff16118015612d895750600082115b8015612d9d5750670de0b6b3a76400008211155b8015612da95750600081115b612df55760405162461bcd60e51b815260206004820152601360248201527f496e76616c6964204461746120506173736564000000000000000000000000006044820152606401610a60565b612dff8585613dec565b612e1b6000868660405180602001604052806000815250613875565b612e8d5760405162461bcd60e51b815260206004820152603260248201527f4552433732313a207472616e7366657220746f206e6f6e20455243373231526560448201527f63656976657220696d706c656d656e74657200000000000000000000000000006064820152608401610a60565b600060008051602061582283398151915290506040518060e001604052808560ff1681526020018481526020018381526020016000815260200160018152602001600067ffffffffffffffff811115612ee857612ee8615205565b604051908082528060200260200182016040528015612f11578160200160208202803683370190505b5081526001602091820181905260008881526007850183526040908190208451815460ff191660ff90911617815584840151928101929092558301516002820155606083015160038201556080830151600482015560a083015180519192612f8192600585019290910190614dad565b5060c091909101516006909101805460ff191691151591909117905560009485526007016020908152604085206005018054600181018255908652942090930180546001600160a01b0319166001600160a01b039590951694909417909355505050565b60008281527f99574a7094154bb123ae6ae102096f0bf9679b85a5cd1e727aaa0ae5f132e6b46020908152604090912082517f99574a7094154bb123ae6ae102096f0bf9679b85a5cd1e727aaa0ae5f132e6b192611751929190850190614e12565b6109948282613f25565b600061096a7f3c7bf052874fa81625121783266a03507bd2cd48b16e571c01a04e8dd3fb07a683613fbd565b80156109ad576040517fb56d7c1b00000000000000000000000000000000000000000000000000000000815260040160405180910390fd5b600061096a825490565b80156130f7576040517f22b1813900000000000000000000000000000000000000000000000000000000815260040160405180910390fd5b611751565b816001600160a01b0316836001600160a01b031614156131515760405162461bcd60e51b815260206004820152601060248201526f3a3930b739b332b9103a379039b2b63360811b6044820152606401610a60565b61315c8383836136a2565b60008051602061582283398151915260005b600083815260078301602052604090206005015481101561322f576000838152600783016020526040902060050180546001600160a01b0386169190839081106131ba576131ba6154f6565b6000918252602090912001546001600160a01b0316141561321d5760405162461bcd60e51b815260206004820181905260248201527f416c726561647920696e2074686520465220736c6964696e672077696e646f776044820152606401610a60565b806132278161550c565b91505061316e565b5060008281526008820160205260409020600190810154600160a01b900460ff161515141561327d576000828152600882016020526040812090815560010180546001600160a81b03191690555b60008281526007820160205260408120600381018290556004018054916132a38361550c565b91905055506117518383613970565b60006109be8383613fd5565b606060ff821661330157505060408051808201909152600781527f4342455f43433000000000000000000000000000000000000000000000000000602082015290565b600160ff8316141561334657505060408051808201909152600781527f4342455f45435200000000000000000000000000000000000000000000000000602082015290565b600260ff8316141561338b57505060408051808201909152600881527f4342455f4e454352000000000000000000000000000000000000000000000000602082015290565b600360ff831614156133d057505060408051808201909152600b81527f4342455f4e4543525f4853000000000000000000000000000000000000000000602082015290565b600460ff8316141561341557505060408051808201909152600681527f4342455f50520000000000000000000000000000000000000000000000000000602082015290565b505060408051808201909152600981527f4342455f50525f48530000000000000000000000000000000000000000000000602082015290565b919050565b60608161349357505060408051808201909152600181527f3000000000000000000000000000000000000000000000000000000000000000602082015290565b8160005b81156134bd57806134a78161550c565b91506134b69050600a8361555c565b9150613497565b60008167ffffffffffffffff8111156134d8576134d8615205565b6040519080825280601f01601f191660200182016040528015613502576020820181803683370190505b5090505b8415612471576135176001836154df565b9150613524600a866155f2565b61352f9060306155da565b60f81b818381518110613544576135446154f6565b60200101907effffffffffffffffffffffffffffffffffffffffffffffffffffffffffffff1916908160001a90535061357e600a8661555c565b9450613506565b6000808080613594868661403a565b9097909650945050505050565b60006109be83836140b6565b6135b681614131565b60008181527f9e2510b4d59b813edef0dae2e1b6c87ee280a0f5524ef39bc6fe83ba371c55ca60205260408120805460ff1916815560018101829055600281018290556003810182905560048101829055600080516020615822833981519152916136246005830182614d8c565b50600601805460ff1916905560009182526008016020526040812090815560010180546001600160a81b0319169055565b6136608484846130fc565b61366c84848484613875565b611751576040517f9ff10cdd00000000000000000000000000000000000000000000000000000000815260040160405180910390fd5b60006136ad82612479565b9050836001600160a01b0316816001600160a01b0316146136fa576040517f0f2db4ad00000000000000000000000000000000000000000000000000000000815260040160405180910390fd5b6001600160a01b03831661373a576040517f40311a0900000000000000000000000000000000000000000000000000000000815260040160405180910390fd5b613745848484614249565b6001600160a01b03841660009081527f3c7bf052874fa81625121783266a03507bd2cd48b16e571c01a04e8dd3fb07a8602052604090207f3c7bf052874fa81625121783266a03507bd2cd48b16e571c01a04e8dd3fb07a6906137a89084614254565b506001600160a01b038416600090815260028201602052604090206137cd9084614260565b506137d981848661426c565b50600083815260038201602052604080822080546001600160a01b0319169055518491906001600160a01b038516907f8c5be1e5ebec7d5bd14f71427d1e84f3dd0314c0f7b2291e5b200ac8c7c3b925908390a482846001600160a01b0316866001600160a01b03167fddf252ad1be2c89b69c2b068fc378daa952ba7f163c4a11628f55a4df523b3ef60405160405180910390a45050505050565b60006001600160a01b0384163b61388e57506001612471565b600061393963150b7a0260e01b338887876040516024016138b29493929190615606565b604051602081830303815290604052907bffffffffffffffffffffffffffffffffffffffffffffffffffffffff19166020820180517bffffffffffffffffffffffffffffffffffffffffffffffffffffffff83818316178352505050506040518060600160405280603281526020016157bf603291396001600160a01b0388169190614282565b90506000818060200190518101906139519190615642565b6001600160e01b031916630a85bd0160e11b1492505050949350505050565b60008181527f9e2510b4d59b813edef0dae2e1b6c87ee280a0f5524ef39bc6fe83ba371c55ca6020526040902080546005909101546000805160206158228339815191529160ff161115613a00576000918252600701602090815260408220600501805460018101825590835291200180546001600160a01b0319166001600160a01b0392909216919091179055565b60005b6000838152600783016020526040902060050154613a23906001906154df565b811015613ad15760008381526007830160205260409020600501613a488260016155da565b81548110613a5857613a586154f6565b600091825260208083209091015485835260078501909152604090912060050180546001600160a01b039092169183908110613a9657613a966154f6565b600091825260209091200180546001600160a01b0319166001600160a01b039290921691909117905580613ac98161550c565b915050613a03565b5060008281526007820160205260409020600501805480613af457613af461565f565b60008281526020808220830160001990810180546001600160a01b0319908116909155930190935584815260078401835260408120600501805460018101825590825292902090910180546001600160a01b0386169216919091179055505050565b6000613b628383614291565b6000613b6e8484614419565b60008581527f9e2510b4d59b813edef0dae2e1b6c87ee280a0f5524ef39bc6fe83ba371c55ca6020526040812060030154919250600080516020615822833981519152917fb57ad6294d0e41674b9139793b648baaa742e3cad058c7605a8d73c5bbd2e6019190613bdf90876154df565b600088815260208490526040902054909150613bfc908290612c07565b613c0690856155da565b979650505050505050565b600080806000198587098587029250828110838203039150508060001415613c4c57838281613c4257613c42615546565b04925050506109be565b838110613c8f576040517f773cc18c0000000000000000000000000000000000000000000000000000000081526004810182905260248101859052604401610a60565b600084868809600260036001881981018916988990049182028318808302840302808302840302808302840302808302840302808302840302918202909203026000889003889004909101858311909403939093029303949094049190911702949350505050565b60008080600019848609848602925082811083820303915050670de0b6b3a76400008110613d54576040517fd31b340200000000000000000000000000000000000000000000000000000000815260048101829052602401610a60565b600080670de0b6b3a76400008688099150506706f05b59d3b1ffff811182613d8e5780670de0b6b3a764000085040194505050505061096a565b6204000082850304939091119091037d40000000000000000000000000000000000000000000000000000000000002919091177faccb18165bd6fe31ae1cf318dc5b51eee0e1ba569b88cd74c1773b91fac106690201905092915050565b6001600160a01b038216613e2c576040517f23e5311a00000000000000000000000000000000000000000000000000000000815260040160405180910390fd5b613e3581613051565b15613e6c576040517f6c35dbd800000000000000000000000000000000000000000000000000000000815260040160405180910390fd5b613e7860008383614249565b6001600160a01b03821660009081527f3c7bf052874fa81625121783266a03507bd2cd48b16e571c01a04e8dd3fb07a8602052604090207f3c7bf052874fa81625121783266a03507bd2cd48b16e571c01a04e8dd3fb07a690613edb9083614260565b50613ee781838561426c565b5060405182906001600160a01b038516906000907fddf252ad1be2c89b69c2b068fc378daa952ba7f163c4a11628f55a4df523b3ef908290a4505050565b60058160ff161115613f795760405162461bcd60e51b815260206004820152600f60248201527f496e76616c6964204c6963656e736500000000000000000000000000000000006044820152606401610a60565b60007fddd7f088a4b6a284925c81eec4664f2100283a2fe65589ec37f6e381878d593e6000938452602052506040909120805460ff191660ff909216919091179055565b600081815260018301602052604081205415156109be565b81546000908210614012576040517fe637bf3b00000000000000000000000000000000000000000000000000000000815260040160405180910390fd5b826000018281548110614027576140276154f6565b9060005260206000200154905092915050565b815460009081908310614079576040517f117ec13800000000000000000000000000000000000000000000000000000000815260040160405180910390fd5b6000846000018481548110614090576140906154f6565b906000526020600020906002020190508060000154816001015492509250509250929050565b6000818152600183016020526040812054806140fe576040517ff551fb1400000000000000000000000000000000000000000000000000000000815260040160405180910390fd5b836000016001820381548110614116576141166154f6565b90600052602060002090600202016001015491505092915050565b600061413c82612479565b905061414a81600084614249565b6001600160a01b03811660009081527f3c7bf052874fa81625121783266a03507bd2cd48b16e571c01a04e8dd3fb07a8602052604090207f3c7bf052874fa81625121783266a03507bd2cd48b16e571c01a04e8dd3fb07a6906141ad9084614254565b506141b8818461464c565b50600083815260038201602052604080822080546001600160a01b0319169055518491906001600160a01b038516907f8c5be1e5ebec7d5bd14f71427d1e84f3dd0314c0f7b2291e5b200ac8c7c3b925908390a460405183906000906001600160a01b038516907fddf252ad1be2c89b69c2b068fc378daa952ba7f163c4a11628f55a4df523b3ef908390a4505050565b6109ad838383614658565b60006109be8383614663565b60006109be838361471d565b600061247184846001600160a01b038516614760565b606061247184846000856147fd565b60008281527f9e2510b4d59b813edef0dae2e1b6c87ee280a0f5524ef39bc6fe83ba371c55ca6020526040812060030154600080516020615822833981519152917fb57ad6294d0e41674b9139793b648baaa742e3cad058c7605a8d73c5bbd2e601916142fe90856154df565b6000868152602084905260408120549192509061431c908390612c07565b905060005b6000878152602085905260409020600201548110156143e157600087815260208590526040812060020180548390811061435d5761435d6154f6565b60009182526020808320909101548a835287825260408084206001600160a01b03909216808552600390920190925291205490915061439d908490612c07565b6001600160a01b0382166000908152600187016020526040812080549091906143c79084906155da565b909155508291506143d990508161550c565b915050614321565b508085877f203f543c39cd9297a8eb66a22189a127d3e94b5e54d52bfef63fec603138edf160405160405180910390a4505050505050565b60008281527f9e2510b4d59b813edef0dae2e1b6c87ee280a0f5524ef39bc6fe83ba371c55ca6020908152604080832060050180548251818502810185019093528083526000805160206158228339815191529385939291908301828280156144ab57602002820191906000526020600020905b81546001600160a01b0316815260019091019060200180831161448d575b50505050509050600181510381528051600014156144ce5760009250505061096a565b60008581526007830160205260408120600301546144ec90866154df565b600087815260078501602052604081206001808201546002830154600490930154949550929361454e9386939092909161452691906154df565b60008c815260078a0160205260409020546145469060019060ff16615675565b60ff166148d3565b905060005b81518110156145f15781818151811061456e5761456e6154f6565b60200260200101518560090160008760070160008c815260200190815260200160002060050184815481106145a5576145a56154f6565b60009182526020808320909101546001600160a01b03168352820192909252604001812080549091906145d99084906155da565b909155508190506145e98161550c565b915050614553565b506000878152600785016020526040902060010154614611908390612c07565b94508486887f0362ef0ca7c60bdd7789f855ba29ed06265c4c942f6562c9e0007dbcb1e107c760405160405180910390a45050505092915050565b60006109be8383614a2e565b6109ad838383614b16565b600081815260018301602052604081205480156123ad57835460009085906000198101908110614695576146956154f6565b90600052602060002001549050808560000160018403815481106146bb576146bb6154f6565b60009182526020808320909101929092559182526001860190526040902081905583548490806146ed576146ed61565f565b60008281526020808220830160001990810183905590920190925593815260019485019093525050604081205590565b600081815260018301602052604081205461096a575081546001808201845560008481526020808220909301849055845493815293810190915260409092205590565b6000828152600184016020526040812054806147c55750506040805180820182528381526020808201848152865460018181018955600089815284812095516002909302909501918255915190820155865486845281880190925292909120556109be565b828560000160018303815481106147de576147de6154f6565b90600052602060002090600202016001018190555060009150506109be565b6060843b614837576040517f89c35afc00000000000000000000000000000000000000000000000000000000815260040160405180910390fd5b600080866001600160a01b031685876040516148539190615698565b60006040518083038185875af1925050503d8060008114614890576040519150601f19603f3d011682016040523d82523d6000602084013e614895565b606091505b509150915081156148a95791506124719050565b8051156148b95780518082602001fd5b8360405162461bcd60e51b8152600401610a609190614f5c565b606060006148e18484614b5a565b905060008167ffffffffffffffff8111156148fe576148fe615205565b604051908082528060200260200182016040528015614927578160200160208202803683370190505b50905060015b6149388360016155da565b811015614a2257600087670de0b6b3a7640000146149d757600061495c8986614b70565b61496e90670de0b6b3a76400006156b4565b905060006149876149806001866154df565b8b90614b70565b905060006149958d8d614c40565b905060006149b56149ae8d670de0b6b3a76400006156b4565b8390614c40565b9050836149c284836156f3565b6149cc919061577a565b9450505050506149e8565b6149e584611ef78c8c612c07565b90505b80836149f484876154df565b81518110614a0457614a046154f6565b60209081029190910101525080614a1a8161550c565b91505061492d565b50979650505050505050565b60008181526001830160205260408120548015614b0c57835460009085906000198101908110614a6057614a606154f6565b9060005260206000209060020201905080856000016001840381548110614a8957614a896154f6565b6000918252602080832084546002909302019182556001938401549184019190915592548152908601909152604090208190558354849080614acd57614acd61565f565b600082815260208082206002600019909401938402018281556001908101839055929093558581528682019092526040822091909155915061096a9050565b600091505061096a565b6001600160a01b0382166109ad5760008181527f99574a7094154bb123ae6ae102096f0bf9679b85a5cd1e727aaa0ae5f132e6b4602052604081206109ad91614e86565b6000818310614b6957816109be565b5090919050565b600080614b7c84614d37565b90506000808460011611614b9857670de0b6b3a7640000614b9a565b815b9050600184901c5b8015614bd257614bb28384613cf7565b92506001811615614bca57614bc78284613cf7565b91505b60011c614ba2565b6001600160ff1b03821115614c16576040517fffb15bcd00000000000000000000000000000000000000000000000000000000815260048101839052602401610a60565b60008087128015614c2a5750856001166001145b905080614c375782613c06565b613c06836157a8565b6000600160ff1b831480614c575750600160ff1b82145b15614c8e576040517f3406846c00000000000000000000000000000000000000000000000000000000815260040160405180910390fd5b60008060008512614c9f5784614ca4565b846000035b915060008412614cb45783614cb9565b836000035b90506000614cc78383613cf7565b90506001600160ff1b03811115614d0d576040517fbf79e8d900000000000000000000000000000000000000000000000000000000815260048101829052602401610a60565b600019808713908613808218600114614d265782614d2b565b826000035b98975050505050505050565b6000600160ff1b821415614d77576040517f741d0b8c00000000000000000000000000000000000000000000000000000000815260040160405180910390fd5b60008212614d85578161096a565b5060000390565b5080546000825590600052602060002090810190614daa9190614ebc565b50565b828054828255906000526020600020908101928215614e02579160200282015b82811115614e0257825182546001600160a01b0319166001600160a01b03909116178255602090920191600190910190614dcd565b50614e0e929150614ebc565b5090565b828054614e1e90615570565b90600052602060002090601f016020900481019282614e405760008555614e02565b82601f10614e5957805160ff1916838001178555614e02565b82800160010185558215614e02579182015b82811115614e02578251825591602001919060010190614e6b565b508054614e9290615570565b6000825580601f10614ea2575050565b601f016020900490600052602060002090810190614daa91905b5b80821115614e0e5760008155600101614ebd565b6001600160e01b031981168114614daa57600080fd5b600060208284031215614ef957600080fd5b81356109be81614ed1565b60005b83811015614f1f578181015183820152602001614f07565b838111156117515750506000910152565b60008151808452614f48816020860160208601614f04565b601f01601f19169290920160200192915050565b6020815260006109be6020830184614f30565b600060208284031215614f8157600080fd5b5035919050565b6001600160a01b0381168114614daa57600080fd5b60008060408385031215614fb057600080fd5b8235614fbb81614f88565b946020939093013593505050565b600080600080600060808688031215614fe157600080fd5b8535614fec81614f88565b94506020860135614ffc81614f88565b935060408601359250606086013567ffffffffffffffff8082111561502057600080fd5b818801915088601f83011261503457600080fd5b81358181111561504357600080fd5b89602082850101111561505557600080fd5b9699959850939650602001949392505050565b60008060006060848603121561507d57600080fd5b833561508881614f88565b9250602084013561509881614f88565b929592945050506040919091013590565b6000602082840312156150bb57600080fd5b81356109be81614f88565b6000806000606084860312156150db57600080fd5b83359250602084013561509881614f88565b6000806040838503121561510057600080fd5b50508035926020909101359150565b803560ff8116811461344e57600080fd5b6000806000806080858703121561513657600080fd5b843593506151466020860161510f565b93969395505050506040820135916060013590565b600081518084526020808501945080840160005b838110156151945781516001600160a01b03168752958201959082019060010161516f565b509495945050505050565b8381528260208201526060604082015260006151be606083018461515b565b95945050505050565b600080604083850312156151da57600080fd5b82356151e581614f88565b9150602083013580151581146151fa57600080fd5b809150509250929050565b634e487b7160e01b600052604160045260246000fd5b600067ffffffffffffffff8084111561523657615236615205565b604051601f8501601f19908116603f0116810190828211818310171561525e5761525e615205565b8160405280935085815286868601111561527757600080fd5b858560208301376000602087830101525050509392505050565b600080600080608085870312156152a757600080fd5b84356152b281614f88565b935060208501356152c281614f88565b925060408501359150606085013567ffffffffffffffff8111156152e557600080fd5b8501601f810187136152f657600080fd5b6153058782356020840161521b565b91505092959194509250565b600082601f83011261532257600080fd5b6109be8383356020850161521b565b600080600080600080600060e0888a03121561534c57600080fd5b873561535781614f88565b96506020880135955061536c6040890161510f565b9450606088013593506080880135925061538860a0890161510f565b915060c088013567ffffffffffffffff8111156153a457600080fd5b6153b08a828b01615311565b91505092959891949750929550565b60ff8716815285602082015284604082015283606082015282608082015260c060a08201526000614d2b60c083018461515b565b6000806040838503121561540657600080fd5b823561541181614f88565b915060208301356151fa81614f88565b60008060008060008060c0878903121561543a57600080fd5b863561544581614f88565b95506154536020880161510f565b9450604087013593506060870135925061546f6080880161510f565b915060a087013567ffffffffffffffff81111561548b57600080fd5b61549789828a01615311565b9150509295509295509295565b600080604083850312156154b757600080fd5b8235915060208301356151fa81614f88565b634e487b7160e01b600052601160045260246000fd5b6000828210156154f1576154f16154c9565b500390565b634e487b7160e01b600052603260045260246000fd5b6000600019821415615520576155206154c9565b5060010190565b6000816000190483118215151615615541576155416154c9565b500290565b634e487b7160e01b600052601260045260246000fd5b60008261556b5761556b615546565b500490565b600181811c9082168061558457607f821691505b602082108114156155a557634e487b7160e01b600052602260045260246000fd5b50919050565b600083516155bd818460208801614f04565b8351908301906155d1818360208801614f04565b01949350505050565b600082198211156155ed576155ed6154c9565b500190565b60008261560157615601615546565b500690565b60006001600160a01b038087168352808616602084015250836040830152608060608301526156386080830184614f30565b9695505050505050565b60006020828403121561565457600080fd5b81516109be81614ed1565b634e487b7160e01b600052603160045260246000fd5b600060ff821660ff84168082101561568f5761568f6154c9565b90039392505050565b600082516156aa818460208701614f04565b9190910192915050565b600080831283600160ff1b018312811516156156d2576156d26154c9565b836001600160ff1b030183138116156156ed576156ed6154c9565b50500390565b60006001600160ff1b0360008413600084138583048511828216161561571b5761571b6154c9565b600160ff1b600087128682058812818416161561573a5761573a6154c9565b60008712925087820587128484161615615756576157566154c9565b8785058712818416161561576c5761576c6154c9565b505050929093029392505050565b60008261578957615789615546565b600160ff1b8214600019841416156157a3576157a36154c9565b500590565b6000600160ff1b821415614d8557614d856154c956fe4552433732313a207472616e7366657220746f206e6f6e20455243373231526563656976657220696d706c656d656e74657261723a2f2f5f44396b4e3157724e576243713535425341475262544234625333763851415054596d42546853625833412f9e2510b4d59b813edef0dae2e1b6c87ee280a0f5524ef39bc6fe83ba371c55c3a2646970667358221220f26e27503d43a185f7417226a284d5395ef2e28daecf8f18c5fc6c789d01fdf264736f6c63430008080033",
  "devdoc": {
    "kind": "dev",
    "methods": {
      "approve(address,uint256)": {
        "params": {
          "operator": "address to be approved",
          "tokenId": "token to approve"
        }
      },
      "balanceOf(address)": {
        "returns": {
          "_0": "quantity of tokens held"
        }
      },
      "getApproved(uint256)": {
        "params": {
          "tokenId": "token to query"
        },
        "returns": {
          "_0": "address approved to spend token"
        }
      },
      "isApprovedForAll(address,address)": {
        "params": {
          "account": "address to query for approval granted",
          "operator": "address to query for approval received"
        },
        "returns": {
          "_0": "whether operator is approved to spend tokens held by account"
        }
      },
      "ownerOf(uint256)": {
        "params": {
          "tokenId": "token to query"
        },
        "returns": {
          "_0": "token owner"
        }
      },
      "safeTransferFrom(address,address,uint256)": {
        "params": {
          "from": "sender of token",
          "to": "receiver of token",
          "tokenId": "token id"
        }
      },
      "safeTransferFrom(address,address,uint256,bytes)": {
        "params": {
          "data": "data payload",
          "from": "sender of token",
          "to": "receiver of token",
          "tokenId": "token id"
        }
      },
      "setApprovalForAll(address,bool)": {
        "params": {
          "operator": "address to be approved",
          "status": "approval status"
        }
      },
      "supportsInterface(bytes4)": {
        "params": {
          "interfaceId": "interface id"
        },
        "returns": {
          "_0": "bool whether interface is supported"
        }
      },
      "tokenByIndex(uint256)": {
        "params": {
          "index": "position in global token list to query"
        },
        "returns": {
          "_0": "id of retrieved token"
        }
      },
      "tokenOfOwnerByIndex(address,uint256)": {
        "params": {
          "index": "position in owner's token list to query",
          "owner": "token holder to query"
        },
        "returns": {
          "_0": "id of retrieved token"
        }
      },
      "totalSupply()": {
        "returns": {
          "_0": "total supply"
        }
      },
      "transferFrom(address,address,uint256)": {
        "params": {
          "from": "sender of token",
          "to": "receiver of token",
          "tokenId": "token id"
        }
      }
    },
    "version": 1
  },
  "userdoc": {
    "errors": {
      "PRBMathSD59x18__AbsInputTooSmall()": [
        {
          "notice": "Emitted when the input is MIN_SD59x18."
        }
      ],
      "PRBMathSD59x18__MulInputTooSmall()": [
        {
          "notice": "Emitted when one of the inputs is MIN_SD59x18."
        }
      ],
      "PRBMathSD59x18__MulOverflow(uint256)": [
        {
          "notice": "Emitted when the intermediary absolute result overflows SD59x18."
        }
      ],
      "PRBMathSD59x18__PowuOverflow(uint256)": [
        {
          "notice": "Emitted when the intermediary absolute result overflows SD59x18."
        }
      ],
      "PRBMath__MulDivFixedPointOverflow(uint256)": [
        {
          "notice": "Emitted when the result overflows uint256."
        }
      ],
      "PRBMath__MulDivOverflow(uint256,uint256)": [
        {
          "notice": "Emitted when the result overflows uint256."
        }
      ]
    },
    "kind": "user",
    "methods": {
      "approve(address,uint256)": {
        "notice": "grant approval to given account to spend token"
      },
      "balanceOf(address)": {
        "notice": "query the balance of given address"
      },
      "getApproved(uint256)": {
        "notice": "get approval status for given token"
      },
      "isApprovedForAll(address,address)": {
        "notice": "query approval status of given operator with respect to given address"
      },
      "name()": {
        "notice": "inheritdoc IERC721Metadata"
      },
      "ownerOf(uint256)": {
        "notice": "query the owner of given token"
      },
      "safeTransferFrom(address,address,uint256)": {
        "notice": "transfer token between given addresses, checking for ERC721Receiver implementation if applicable"
      },
      "safeTransferFrom(address,address,uint256,bytes)": {
        "notice": "transfer token between given addresses, checking for ERC721Receiver implementation if applicable"
      },
      "setApprovalForAll(address,bool)": {
        "notice": "grant approval to or revoke approval from given account to spend all tokens held by sender"
      },
      "supportsInterface(bytes4)": {
        "notice": "query whether contract has registered support for given interface"
      },
      "symbol()": {
        "notice": "inheritdoc IERC721Metadata"
      },
      "tokenByIndex(uint256)": {
        "notice": "get token at given internal storage index"
      },
      "tokenOfOwnerByIndex(address,uint256)": {
        "notice": "get token of given owner at given internal storage index"
      },
      "tokenURI(uint256)": {
        "notice": "inheritdoc IERC721Metadata"
      },
      "totalSupply()": {
        "notice": "get total token supply"
      },
      "transferFrom(address,address,uint256)": {
        "notice": "transfer token between given addresses, without checking for ERC721Receiver implementation if applicable"
      }
    },
    "version": 1
  },
  "storageLayout": {
    "storage": [],
    "types": null
  }
}